{
	"vivica.sol": {
		"MyToken": {
			"abi": [
				{
					"inputs": [],
					"stateMutability": "nonpayable",
					"type": "constructor"
				},
				{
					"inputs": [
						{
							"internalType": "address",
							"name": "account",
							"type": "address"
						}
					],
					"name": "_balances",
					"outputs": [
						{
							"internalType": "uint256",
							"name": "",
							"type": "uint256"
						}
					],
					"stateMutability": "view",
					"type": "function"
				},
				{
					"inputs": [],
					"name": "allowance",
					"outputs": [],
					"stateMutability": "nonpayable",
					"type": "function"
				},
				{
					"inputs": [],
					"name": "approve",
					"outputs": [],
					"stateMutability": "nonpayable",
					"type": "function"
				},
				{
					"inputs": [
						{
							"internalType": "address",
							"name": "account",
							"type": "address"
						}
					],
					"name": "balanceOf",
					"outputs": [
						{
							"internalType": "uint256",
							"name": "",
							"type": "uint256"
						}
					],
					"stateMutability": "view",
					"type": "function"
				},
				{
					"inputs": [],
					"name": "decimals",
					"outputs": [
						{
							"internalType": "uint8",
							"name": "",
							"type": "uint8"
						}
					],
					"stateMutability": "view",
					"type": "function"
				},
				{
					"inputs": [],
					"name": "getDecimals",
					"outputs": [
						{
							"internalType": "uint8",
							"name": "",
							"type": "uint8"
						}
					],
					"stateMutability": "view",
					"type": "function"
				},
				{
					"inputs": [],
					"name": "getSymbol",
					"outputs": [
						{
							"internalType": "string",
							"name": "",
							"type": "string"
						}
					],
					"stateMutability": "view",
					"type": "function"
				},
				{
					"inputs": [],
					"name": "getTokenName",
					"outputs": [
						{
							"internalType": "string",
							"name": "",
							"type": "string"
						}
					],
					"stateMutability": "view",
					"type": "function"
				},
				{
					"inputs": [
						{
							"internalType": "address",
							"name": "account",
							"type": "address"
						},
						{
							"internalType": "uint256",
							"name": "amount",
							"type": "uint256"
						}
					],
					"name": "mint",
					"outputs": [],
					"stateMutability": "nonpayable",
					"type": "function"
				},
				{
					"inputs": [],
					"name": "name",
					"outputs": [
						{
							"internalType": "string",
							"name": "",
							"type": "string"
						}
					],
					"stateMutability": "view",
					"type": "function"
				},
				{
					"inputs": [],
					"name": "owner",
					"outputs": [
						{
							"internalType": "address",
							"name": "",
							"type": "address"
						}
					],
					"stateMutability": "view",
					"type": "function"
				},
				{
					"inputs": [],
					"name": "symbol",
					"outputs": [
						{
							"internalType": "string",
							"name": "",
							"type": "string"
						}
					],
					"stateMutability": "view",
					"type": "function"
				},
				{
					"inputs": [],
					"name": "totalSupply",
					"outputs": [
						{
							"internalType": "uint256",
							"name": "",
							"type": "uint256"
						}
					],
					"stateMutability": "view",
					"type": "function"
				},
				{
					"inputs": [],
					"name": "transfer",
					"outputs": [],
					"stateMutability": "nonpayable",
					"type": "function"
				},
				{
					"inputs": [],
					"name": "transferFrom",
					"outputs": [],
					"stateMutability": "nonpayable",
					"type": "function"
				}
			],
			"devdoc": {
				"kind": "dev",
				"methods": {},
				"version": 1
			},
			"evm": {
				"assembly": "    /* \"vivica.sol\":58:1468  contract MyToken {... */\n  mstore(0x40, 0x80)\n    /* \"vivica.sol\":217:394  constructor () {... */\n  callvalue\n  dup1\n  iszero\n  tag_1\n  jumpi\n  0x00\n  dup1\n  revert\ntag_1:\n  pop\n    /* \"vivica.sol\":242:257  name = \"Vivica\" */\n  mload(0x40)\n  dup1\n  0x40\n  add\n  0x40\n  mstore\n  dup1\n  0x06\n  dup2\n  mstore\n  0x20\n  add\n  0x5669766963610000000000000000000000000000000000000000000000000000\n  dup2\n  mstore\n  pop\n    /* \"vivica.sol\":242:246  name */\n  0x00\n    /* \"vivica.sol\":242:257  name = \"Vivica\" */\n  swap1\n  dup2\n  tag_4\n  swap2\n  swap1\n  tag_5\n  jump\t// in\ntag_4:\n  pop\n    /* \"vivica.sol\":267:280  symbol = \"VA\" */\n  mload(0x40)\n  dup1\n  0x40\n  add\n  0x40\n  mstore\n  dup1\n  0x02\n  dup2\n  mstore\n  0x20\n  add\n  0x5641000000000000000000000000000000000000000000000000000000000000\n  dup2\n  mstore\n  pop\n    /* \"vivica.sol\":267:273  symbol */\n  0x01\n    /* \"vivica.sol\":267:280  symbol = \"VA\" */\n  swap1\n  dup2\n  tag_6\n  swap2\n  swap1\n  tag_5\n  jump\t// in\ntag_6:\n  pop\n    /* \"vivica.sol\":301:303  18 */\n  0x12\n    /* \"vivica.sol\":290:298  decimals */\n  0x02\n  0x00\n    /* \"vivica.sol\":290:303  decimals = 18 */\n  0x0100\n  exp\n  dup2\n  sload\n  dup2\n  0xff\n  mul\n  not\n  and\n  swap1\n  dup4\n  0xff\n  and\n  mul\n  or\n  swap1\n  sstore\n  pop\n    /* \"vivica.sol\":321:331  msg.sender */\n  caller\n    /* \"vivica.sol\":313:318  owner */\n  0x04\n  0x00\n    /* \"vivica.sol\":313:331  owner = msg.sender */\n  0x0100\n  exp\n  dup2\n  sload\n  dup2\n  0xffffffffffffffffffffffffffffffffffffffff\n  mul\n  not\n  and\n  swap1\n  dup4\n  0xffffffffffffffffffffffffffffffffffffffff\n  and\n  mul\n  or\n  swap1\n  sstore\n  pop\n    /* \"vivica.sol\":341:387  _mint(msg.sender, 1000 * 10 ** uint(decimals)) */\n  tag_7\n    /* \"vivica.sol\":347:357  msg.sender */\n  caller\n    /* \"vivica.sol\":377:385  decimals */\n  0x02\n  0x00\n  swap1\n  sload\n  swap1\n  0x0100\n  exp\n  swap1\n  div\n  0xff\n  and\n    /* \"vivica.sol\":372:386  uint(decimals) */\n  0xff\n  and\n    /* \"vivica.sol\":366:368  10 */\n  0x0a\n    /* \"vivica.sol\":366:386  10 ** uint(decimals) */\n  tag_8\n  swap2\n  swap1\n  tag_9\n  jump\t// in\ntag_8:\n    /* \"vivica.sol\":359:363  1000 */\n  0x03e8\n    /* \"vivica.sol\":359:386  1000 * 10 ** uint(decimals) */\n  tag_10\n  swap2\n  swap1\n  tag_11\n  jump\t// in\ntag_10:\n    /* \"vivica.sol\":341:346  _mint */\n  shl(0x20, tag_12)\n    /* \"vivica.sol\":341:387  _mint(msg.sender, 1000 * 10 ** uint(decimals)) */\n  0x20\n  shr\n  jump\t// in\ntag_7:\n    /* \"vivica.sol\":58:1468  contract MyToken {... */\n  jump(tag_13)\n    /* \"vivica.sol\":459:593  function _mint (address account, uint256 amount) internal {... */\ntag_12:\n    /* \"vivica.sol\":548:554  amount */\n  dup1\n    /* \"vivica.sol\":527:536  _balances */\n  0x05\n    /* \"vivica.sol\":527:545  _balances[account] */\n  0x00\n    /* \"vivica.sol\":537:544  account */\n  dup5\n    /* \"vivica.sol\":527:545  _balances[account] */\n  0xffffffffffffffffffffffffffffffffffffffff\n  and\n  0xffffffffffffffffffffffffffffffffffffffff\n  and\n  dup2\n  mstore\n  0x20\n  add\n  swap1\n  dup2\n  mstore\n  0x20\n  add\n  0x00\n  keccak256\n  0x00\n    /* \"vivica.sol\":527:554  _balances[account]+= amount */\n  dup3\n  dup3\n  sload\n  tag_15\n  swap2\n  swap1\n  tag_16\n  jump\t// in\ntag_15:\n  swap3\n  pop\n  pop\n  dup2\n  swap1\n  sstore\n  pop\n    /* \"vivica.sol\":580:586  amount */\n  dup1\n    /* \"vivica.sol\":564:576  _totalSupply */\n  0x03\n  0x00\n    /* \"vivica.sol\":564:586  _totalSupply += amount */\n  dup3\n  dup3\n  sload\n  tag_17\n  swap2\n  swap1\n  tag_16\n  jump\t// in\ntag_17:\n  swap3\n  pop\n  pop\n  dup2\n  swap1\n  sstore\n  pop\n    /* \"vivica.sol\":459:593  function _mint (address account, uint256 amount) internal {... */\n  pop\n  pop\n  jump\t// out\n    /* \"#utility.yul\":7:106   */\ntag_18:\n    /* \"#utility.yul\":59:65   */\n  0x00\n    /* \"#utility.yul\":93:98   */\n  dup2\n    /* \"#utility.yul\":87:99   */\n  mload\n    /* \"#utility.yul\":77:99   */\n  swap1\n  pop\n    /* \"#utility.yul\":7:106   */\n  swap2\n  swap1\n  pop\n  jump\t// out\n    /* \"#utility.yul\":112:292   */\ntag_19:\n    /* \"#utility.yul\":160:237   */\n  0x4e487b7100000000000000000000000000000000000000000000000000000000\n    /* \"#utility.yul\":157:158   */\n  0x00\n    /* \"#utility.yul\":150:238   */\n  mstore\n    /* \"#utility.yul\":257:261   */\n  0x41\n    /* \"#utility.yul\":254:255   */\n  0x04\n    /* \"#utility.yul\":247:262   */\n  mstore\n    /* \"#utility.yul\":281:285   */\n  0x24\n    /* \"#utility.yul\":278:279   */\n  0x00\n    /* \"#utility.yul\":271:286   */\n  revert\n    /* \"#utility.yul\":298:478   */\ntag_20:\n    /* \"#utility.yul\":346:423   */\n  0x4e487b7100000000000000000000000000000000000000000000000000000000\n    /* \"#utility.yul\":343:344   */\n  0x00\n    /* \"#utility.yul\":336:424   */\n  mstore\n    /* \"#utility.yul\":443:447   */\n  0x22\n    /* \"#utility.yul\":440:441   */\n  0x04\n    /* \"#utility.yul\":433:448   */\n  mstore\n    /* \"#utility.yul\":467:471   */\n  0x24\n    /* \"#utility.yul\":464:465   */\n  0x00\n    /* \"#utility.yul\":457:472   */\n  revert\n    /* \"#utility.yul\":484:804   */\ntag_21:\n    /* \"#utility.yul\":528:534   */\n  0x00\n    /* \"#utility.yul\":565:566   */\n  0x02\n    /* \"#utility.yul\":559:563   */\n  dup3\n    /* \"#utility.yul\":555:567   */\n  div\n    /* \"#utility.yul\":545:567   */\n  swap1\n  pop\n    /* \"#utility.yul\":612:613   */\n  0x01\n    /* \"#utility.yul\":606:610   */\n  dup3\n    /* \"#utility.yul\":602:614   */\n  and\n    /* \"#utility.yul\":633:651   */\n  dup1\n    /* \"#utility.yul\":623:704   */\n  tag_47\n  jumpi\n    /* \"#utility.yul\":689:693   */\n  0x7f\n    /* \"#utility.yul\":681:687   */\n  dup3\n    /* \"#utility.yul\":677:694   */\n  and\n    /* \"#utility.yul\":667:694   */\n  swap2\n  pop\n    /* \"#utility.yul\":623:704   */\ntag_47:\n    /* \"#utility.yul\":751:753   */\n  0x20\n    /* \"#utility.yul\":743:749   */\n  dup3\n    /* \"#utility.yul\":740:754   */\n  lt\n    /* \"#utility.yul\":720:738   */\n  dup2\n    /* \"#utility.yul\":717:755   */\n  sub\n    /* \"#utility.yul\":714:798   */\n  tag_48\n  jumpi\n    /* \"#utility.yul\":770:788   */\n  tag_49\n  tag_20\n  jump\t// in\ntag_49:\n    /* \"#utility.yul\":714:798   */\ntag_48:\n    /* \"#utility.yul\":535:804   */\n  pop\n    /* \"#utility.yul\":484:804   */\n  swap2\n  swap1\n  pop\n  jump\t// out\n    /* \"#utility.yul\":810:951   */\ntag_22:\n    /* \"#utility.yul\":859:863   */\n  0x00\n    /* \"#utility.yul\":882:885   */\n  dup2\n    /* \"#utility.yul\":874:885   */\n  swap1\n  pop\n    /* \"#utility.yul\":905:908   */\n  dup2\n    /* \"#utility.yul\":902:903   */\n  0x00\n    /* \"#utility.yul\":895:909   */\n  mstore\n    /* \"#utility.yul\":939:943   */\n  0x20\n    /* \"#utility.yul\":936:937   */\n  0x00\n    /* \"#utility.yul\":926:944   */\n  keccak256\n    /* \"#utility.yul\":918:944   */\n  swap1\n  pop\n    /* \"#utility.yul\":810:951   */\n  swap2\n  swap1\n  pop\n  jump\t// out\n    /* \"#utility.yul\":957:1050   */\ntag_23:\n    /* \"#utility.yul\":994:1000   */\n  0x00\n    /* \"#utility.yul\":1041:1043   */\n  0x20\n    /* \"#utility.yul\":1036:1038   */\n  0x1f\n    /* \"#utility.yul\":1029:1034   */\n  dup4\n    /* \"#utility.yul\":1025:1039   */\n  add\n    /* \"#utility.yul\":1021:1044   */\n  div\n    /* \"#utility.yul\":1011:1044   */\n  swap1\n  pop\n    /* \"#utility.yul\":957:1050   */\n  swap2\n  swap1\n  pop\n  jump\t// out\n    /* \"#utility.yul\":1056:1163   */\ntag_24:\n    /* \"#utility.yul\":1100:1108   */\n  0x00\n    /* \"#utility.yul\":1150:1155   */\n  dup3\n    /* \"#utility.yul\":1144:1148   */\n  dup3\n    /* \"#utility.yul\":1140:1156   */\n  shl\n    /* \"#utility.yul\":1119:1156   */\n  swap1\n  pop\n    /* \"#utility.yul\":1056:1163   */\n  swap3\n  swap2\n  pop\n  pop\n  jump\t// out\n    /* \"#utility.yul\":1169:1562   */\ntag_25:\n    /* \"#utility.yul\":1238:1244   */\n  0x00\n    /* \"#utility.yul\":1288:1289   */\n  0x08\n    /* \"#utility.yul\":1276:1286   */\n  dup4\n    /* \"#utility.yul\":1272:1290   */\n  mul\n    /* \"#utility.yul\":1311:1408   */\n  tag_54\n    /* \"#utility.yul\":1341:1407   */\n  0xffffffffffffffffffffffffffffffffffffffffffffffffffffffffffffffff\n    /* \"#utility.yul\":1330:1339   */\n  dup3\n    /* \"#utility.yul\":1311:1408   */\n  tag_24\n  jump\t// in\ntag_54:\n    /* \"#utility.yul\":1429:1468   */\n  tag_55\n    /* \"#utility.yul\":1459:1467   */\n  dup7\n    /* \"#utility.yul\":1448:1457   */\n  dup4\n    /* \"#utility.yul\":1429:1468   */\n  tag_24\n  jump\t// in\ntag_55:\n    /* \"#utility.yul\":1417:1468   */\n  swap6\n  pop\n    /* \"#utility.yul\":1501:1505   */\n  dup1\n    /* \"#utility.yul\":1497:1506   */\n  not\n    /* \"#utility.yul\":1490:1495   */\n  dup5\n    /* \"#utility.yul\":1486:1507   */\n  and\n    /* \"#utility.yul\":1477:1507   */\n  swap4\n  pop\n    /* \"#utility.yul\":1550:1554   */\n  dup1\n    /* \"#utility.yul\":1540:1548   */\n  dup7\n    /* \"#utility.yul\":1536:1555   */\n  and\n    /* \"#utility.yul\":1529:1534   */\n  dup5\n    /* \"#utility.yul\":1526:1556   */\n  or\n    /* \"#utility.yul\":1516:1556   */\n  swap3\n  pop\n    /* \"#utility.yul\":1245:1562   */\n  pop\n  pop\n    /* \"#utility.yul\":1169:1562   */\n  swap4\n  swap3\n  pop\n  pop\n  pop\n  jump\t// out\n    /* \"#utility.yul\":1568:1645   */\ntag_26:\n    /* \"#utility.yul\":1605:1612   */\n  0x00\n    /* \"#utility.yul\":1634:1639   */\n  dup2\n    /* \"#utility.yul\":1623:1639   */\n  swap1\n  pop\n    /* \"#utility.yul\":1568:1645   */\n  swap2\n  swap1\n  pop\n  jump\t// out\n    /* \"#utility.yul\":1651:1711   */\ntag_27:\n    /* \"#utility.yul\":1679:1682   */\n  0x00\n    /* \"#utility.yul\":1700:1705   */\n  dup2\n    /* \"#utility.yul\":1693:1705   */\n  swap1\n  pop\n    /* \"#utility.yul\":1651:1711   */\n  swap2\n  swap1\n  pop\n  jump\t// out\n    /* \"#utility.yul\":1717:1859   */\ntag_28:\n    /* \"#utility.yul\":1767:1776   */\n  0x00\n    /* \"#utility.yul\":1800:1853   */\n  tag_59\n    /* \"#utility.yul\":1818:1852   */\n  tag_60\n    /* \"#utility.yul\":1827:1851   */\n  tag_61\n    /* \"#utility.yul\":1845:1850   */\n  dup5\n    /* \"#utility.yul\":1827:1851   */\n  tag_26\n  jump\t// in\ntag_61:\n    /* \"#utility.yul\":1818:1852   */\n  tag_27\n  jump\t// in\ntag_60:\n    /* \"#utility.yul\":1800:1853   */\n  tag_26\n  jump\t// in\ntag_59:\n    /* \"#utility.yul\":1787:1853   */\n  swap1\n  pop\n    /* \"#utility.yul\":1717:1859   */\n  swap2\n  swap1\n  pop\n  jump\t// out\n    /* \"#utility.yul\":1865:1940   */\ntag_29:\n    /* \"#utility.yul\":1908:1911   */\n  0x00\n    /* \"#utility.yul\":1929:1934   */\n  dup2\n    /* \"#utility.yul\":1922:1934   */\n  swap1\n  pop\n    /* \"#utility.yul\":1865:1940   */\n  swap2\n  swap1\n  pop\n  jump\t// out\n    /* \"#utility.yul\":1946:2215   */\ntag_30:\n    /* \"#utility.yul\":2056:2095   */\n  tag_64\n    /* \"#utility.yul\":2087:2094   */\n  dup4\n    /* \"#utility.yul\":2056:2095   */\n  tag_28\n  jump\t// in\ntag_64:\n    /* \"#utility.yul\":2117:2208   */\n  tag_65\n    /* \"#utility.yul\":2166:2207   */\n  tag_66\n    /* \"#utility.yul\":2190:2206   */\n  dup3\n    /* \"#utility.yul\":2166:2207   */\n  tag_29\n  jump\t// in\ntag_66:\n    /* \"#utility.yul\":2158:2164   */\n  dup5\n    /* \"#utility.yul\":2151:2155   */\n  dup5\n    /* \"#utility.yul\":2145:2156   */\n  sload\n    /* \"#utility.yul\":2117:2208   */\n  tag_25\n  jump\t// in\ntag_65:\n    /* \"#utility.yul\":2111:2115   */\n  dup3\n    /* \"#utility.yul\":2104:2209   */\n  sstore\n    /* \"#utility.yul\":2022:2215   */\n  pop\n    /* \"#utility.yul\":1946:2215   */\n  pop\n  pop\n  pop\n  jump\t// out\n    /* \"#utility.yul\":2221:2294   */\ntag_31:\n    /* \"#utility.yul\":2266:2269   */\n  0x00\n    /* \"#utility.yul\":2221:2294   */\n  swap1\n  jump\t// out\n    /* \"#utility.yul\":2300:2489   */\ntag_32:\n    /* \"#utility.yul\":2377:2409   */\n  tag_69\n  tag_31\n  jump\t// in\ntag_69:\n    /* \"#utility.yul\":2418:2483   */\n  tag_70\n    /* \"#utility.yul\":2476:2482   */\n  dup2\n    /* \"#utility.yul\":2468:2474   */\n  dup5\n    /* \"#utility.yul\":2462:2466   */\n  dup5\n    /* \"#utility.yul\":2418:2483   */\n  tag_30\n  jump\t// in\ntag_70:\n    /* \"#utility.yul\":2353:2489   */\n  pop\n    /* \"#utility.yul\":2300:2489   */\n  pop\n  pop\n  jump\t// out\n    /* \"#utility.yul\":2495:2681   */\ntag_33:\n    /* \"#utility.yul\":2555:2675   */\ntag_72:\n    /* \"#utility.yul\":2572:2575   */\n  dup2\n    /* \"#utility.yul\":2565:2570   */\n  dup2\n    /* \"#utility.yul\":2562:2576   */\n  lt\n    /* \"#utility.yul\":2555:2675   */\n  iszero\n  tag_74\n  jumpi\n    /* \"#utility.yul\":2626:2665   */\n  tag_75\n    /* \"#utility.yul\":2663:2664   */\n  0x00\n    /* \"#utility.yul\":2656:2661   */\n  dup3\n    /* \"#utility.yul\":2626:2665   */\n  tag_32\n  jump\t// in\ntag_75:\n    /* \"#utility.yul\":2599:2600   */\n  0x01\n    /* \"#utility.yul\":2592:2597   */\n  dup2\n    /* \"#utility.yul\":2588:2601   */\n  add\n    /* \"#utility.yul\":2579:2601   */\n  swap1\n  pop\n    /* \"#utility.yul\":2555:2675   */\n  jump(tag_72)\ntag_74:\n    /* \"#utility.yul\":2495:2681   */\n  pop\n  pop\n  jump\t// out\n    /* \"#utility.yul\":2687:3230   */\ntag_34:\n    /* \"#utility.yul\":2788:2790   */\n  0x1f\n    /* \"#utility.yul\":2783:2786   */\n  dup3\n    /* \"#utility.yul\":2780:2791   */\n  gt\n    /* \"#utility.yul\":2777:3223   */\n  iszero\n  tag_77\n  jumpi\n    /* \"#utility.yul\":2822:2860   */\n  tag_78\n    /* \"#utility.yul\":2854:2859   */\n  dup2\n    /* \"#utility.yul\":2822:2860   */\n  tag_22\n  jump\t// in\ntag_78:\n    /* \"#utility.yul\":2906:2935   */\n  tag_79\n    /* \"#utility.yul\":2924:2934   */\n  dup5\n    /* \"#utility.yul\":2906:2935   */\n  tag_23\n  jump\t// in\ntag_79:\n    /* \"#utility.yul\":2896:2904   */\n  dup2\n    /* \"#utility.yul\":2892:2936   */\n  add\n    /* \"#utility.yul\":3089:3091   */\n  0x20\n    /* \"#utility.yul\":3077:3087   */\n  dup6\n    /* \"#utility.yul\":3074:3092   */\n  lt\n    /* \"#utility.yul\":3071:3120   */\n  iszero\n  tag_80\n  jumpi\n    /* \"#utility.yul\":3110:3118   */\n  dup2\n    /* \"#utility.yul\":3095:3118   */\n  swap1\n  pop\n    /* \"#utility.yul\":3071:3120   */\ntag_80:\n    /* \"#utility.yul\":3133:3213   */\n  tag_81\n    /* \"#utility.yul\":3189:3211   */\n  tag_82\n    /* \"#utility.yul\":3207:3210   */\n  dup6\n    /* \"#utility.yul\":3189:3211   */\n  tag_23\n  jump\t// in\ntag_82:\n    /* \"#utility.yul\":3179:3187   */\n  dup4\n    /* \"#utility.yul\":3175:3212   */\n  add\n    /* \"#utility.yul\":3162:3173   */\n  dup3\n    /* \"#utility.yul\":3133:3213   */\n  tag_33\n  jump\t// in\ntag_81:\n    /* \"#utility.yul\":2792:3223   */\n  pop\n  pop\n    /* \"#utility.yul\":2777:3223   */\ntag_77:\n    /* \"#utility.yul\":2687:3230   */\n  pop\n  pop\n  pop\n  jump\t// out\n    /* \"#utility.yul\":3236:3353   */\ntag_35:\n    /* \"#utility.yul\":3290:3298   */\n  0x00\n    /* \"#utility.yul\":3340:3345   */\n  dup3\n    /* \"#utility.yul\":3334:3338   */\n  dup3\n    /* \"#utility.yul\":3330:3346   */\n  shr\n    /* \"#utility.yul\":3309:3346   */\n  swap1\n  pop\n    /* \"#utility.yul\":3236:3353   */\n  swap3\n  swap2\n  pop\n  pop\n  jump\t// out\n    /* \"#utility.yul\":3359:3528   */\ntag_36:\n    /* \"#utility.yul\":3403:3409   */\n  0x00\n    /* \"#utility.yul\":3436:3487   */\n  tag_85\n    /* \"#utility.yul\":3484:3485   */\n  0x00\n    /* \"#utility.yul\":3480:3486   */\n  not\n    /* \"#utility.yul\":3472:3477   */\n  dup5\n    /* \"#utility.yul\":3469:3470   */\n  0x08\n    /* \"#utility.yul\":3465:3478   */\n  mul\n    /* \"#utility.yul\":3436:3487   */\n  tag_35\n  jump\t// in\ntag_85:\n    /* \"#utility.yul\":3432:3488   */\n  not\n    /* \"#utility.yul\":3517:3521   */\n  dup1\n    /* \"#utility.yul\":3511:3515   */\n  dup4\n    /* \"#utility.yul\":3507:3522   */\n  and\n    /* \"#utility.yul\":3497:3522   */\n  swap2\n  pop\n    /* \"#utility.yul\":3410:3528   */\n  pop\n    /* \"#utility.yul\":3359:3528   */\n  swap3\n  swap2\n  pop\n  pop\n  jump\t// out\n    /* \"#utility.yul\":3533:3828   */\ntag_37:\n    /* \"#utility.yul\":3609:3613   */\n  0x00\n    /* \"#utility.yul\":3755:3784   */\n  tag_87\n    /* \"#utility.yul\":3780:3783   */\n  dup4\n    /* \"#utility.yul\":3774:3778   */\n  dup4\n    /* \"#utility.yul\":3755:3784   */\n  tag_36\n  jump\t// in\ntag_87:\n    /* \"#utility.yul\":3747:3784   */\n  swap2\n  pop\n    /* \"#utility.yul\":3817:3820   */\n  dup3\n    /* \"#utility.yul\":3814:3815   */\n  0x02\n    /* \"#utility.yul\":3810:3821   */\n  mul\n    /* \"#utility.yul\":3804:3808   */\n  dup3\n    /* \"#utility.yul\":3801:3822   */\n  or\n    /* \"#utility.yul\":3793:3822   */\n  swap1\n  pop\n    /* \"#utility.yul\":3533:3828   */\n  swap3\n  swap2\n  pop\n  pop\n  jump\t// out\n    /* \"#utility.yul\":3833:5228   */\ntag_5:\n    /* \"#utility.yul\":3950:3987   */\n  tag_89\n    /* \"#utility.yul\":3983:3986   */\n  dup3\n    /* \"#utility.yul\":3950:3987   */\n  tag_18\n  jump\t// in\ntag_89:\n    /* \"#utility.yul\":4052:4070   */\n  0xffffffffffffffff\n    /* \"#utility.yul\":4044:4050   */\n  dup2\n    /* \"#utility.yul\":4041:4071   */\n  gt\n    /* \"#utility.yul\":4038:4094   */\n  iszero\n  tag_90\n  jumpi\n    /* \"#utility.yul\":4074:4092   */\n  tag_91\n  tag_19\n  jump\t// in\ntag_91:\n    /* \"#utility.yul\":4038:4094   */\ntag_90:\n    /* \"#utility.yul\":4118:4156   */\n  tag_92\n    /* \"#utility.yul\":4150:4154   */\n  dup3\n    /* \"#utility.yul\":4144:4155   */\n  sload\n    /* \"#utility.yul\":4118:4156   */\n  tag_21\n  jump\t// in\ntag_92:\n    /* \"#utility.yul\":4203:4270   */\n  tag_93\n    /* \"#utility.yul\":4263:4269   */\n  dup3\n    /* \"#utility.yul\":4255:4261   */\n  dup3\n    /* \"#utility.yul\":4249:4253   */\n  dup6\n    /* \"#utility.yul\":4203:4270   */\n  tag_34\n  jump\t// in\ntag_93:\n    /* \"#utility.yul\":4297:4298   */\n  0x00\n    /* \"#utility.yul\":4321:4325   */\n  0x20\n    /* \"#utility.yul\":4308:4325   */\n  swap1\n  pop\n    /* \"#utility.yul\":4353:4355   */\n  0x1f\n    /* \"#utility.yul\":4345:4351   */\n  dup4\n    /* \"#utility.yul\":4342:4356   */\n  gt\n    /* \"#utility.yul\":4370:4371   */\n  0x01\n    /* \"#utility.yul\":4365:4983   */\n  dup2\n  eq\n  tag_95\n  jumpi\n    /* \"#utility.yul\":5027:5028   */\n  0x00\n    /* \"#utility.yul\":5044:5050   */\n  dup5\n    /* \"#utility.yul\":5041:5118   */\n  iszero\n  tag_96\n  jumpi\n    /* \"#utility.yul\":5093:5102   */\n  dup3\n    /* \"#utility.yul\":5088:5091   */\n  dup8\n    /* \"#utility.yul\":5084:5103   */\n  add\n    /* \"#utility.yul\":5078:5104   */\n  mload\n    /* \"#utility.yul\":5069:5104   */\n  swap1\n  pop\n    /* \"#utility.yul\":5041:5118   */\ntag_96:\n    /* \"#utility.yul\":5144:5211   */\n  tag_97\n    /* \"#utility.yul\":5204:5210   */\n  dup6\n    /* \"#utility.yul\":5197:5202   */\n  dup3\n    /* \"#utility.yul\":5144:5211   */\n  tag_37\n  jump\t// in\ntag_97:\n    /* \"#utility.yul\":5138:5142   */\n  dup7\n    /* \"#utility.yul\":5131:5212   */\n  sstore\n    /* \"#utility.yul\":5000:5222   */\n  pop\n    /* \"#utility.yul\":4335:5222   */\n  jump(tag_94)\n    /* \"#utility.yul\":4365:4983   */\ntag_95:\n    /* \"#utility.yul\":4417:4421   */\n  0x1f\n    /* \"#utility.yul\":4413:4422   */\n  not\n    /* \"#utility.yul\":4405:4411   */\n  dup5\n    /* \"#utility.yul\":4401:4423   */\n  and\n    /* \"#utility.yul\":4451:4488   */\n  tag_98\n    /* \"#utility.yul\":4483:4487   */\n  dup7\n    /* \"#utility.yul\":4451:4488   */\n  tag_22\n  jump\t// in\ntag_98:\n    /* \"#utility.yul\":4510:4511   */\n  0x00\n    /* \"#utility.yul\":4524:4732   */\ntag_99:\n    /* \"#utility.yul\":4538:4545   */\n  dup3\n    /* \"#utility.yul\":4535:4536   */\n  dup2\n    /* \"#utility.yul\":4532:4546   */\n  lt\n    /* \"#utility.yul\":4524:4732   */\n  iszero\n  tag_101\n  jumpi\n    /* \"#utility.yul\":4617:4626   */\n  dup5\n    /* \"#utility.yul\":4612:4615   */\n  dup10\n    /* \"#utility.yul\":4608:4627   */\n  add\n    /* \"#utility.yul\":4602:4628   */\n  mload\n    /* \"#utility.yul\":4594:4600   */\n  dup3\n    /* \"#utility.yul\":4587:4629   */\n  sstore\n    /* \"#utility.yul\":4668:4669   */\n  0x01\n    /* \"#utility.yul\":4660:4666   */\n  dup3\n    /* \"#utility.yul\":4656:4670   */\n  add\n    /* \"#utility.yul\":4646:4670   */\n  swap2\n  pop\n    /* \"#utility.yul\":4715:4717   */\n  0x20\n    /* \"#utility.yul\":4704:4713   */\n  dup6\n    /* \"#utility.yul\":4700:4718   */\n  add\n    /* \"#utility.yul\":4687:4718   */\n  swap5\n  pop\n    /* \"#utility.yul\":4561:4565   */\n  0x20\n    /* \"#utility.yul\":4558:4559   */\n  dup2\n    /* \"#utility.yul\":4554:4566   */\n  add\n    /* \"#utility.yul\":4549:4566   */\n  swap1\n  pop\n    /* \"#utility.yul\":4524:4732   */\n  jump(tag_99)\ntag_101:\n    /* \"#utility.yul\":4760:4766   */\n  dup7\n    /* \"#utility.yul\":4751:4758   */\n  dup4\n    /* \"#utility.yul\":4748:4767   */\n  lt\n    /* \"#utility.yul\":4745:4924   */\n  iszero\n  tag_102\n  jumpi\n    /* \"#utility.yul\":4818:4827   */\n  dup5\n    /* \"#utility.yul\":4813:4816   */\n  dup10\n    /* \"#utility.yul\":4809:4828   */\n  add\n    /* \"#utility.yul\":4803:4829   */\n  mload\n    /* \"#utility.yul\":4861:4909   */\n  tag_103\n    /* \"#utility.yul\":4903:4907   */\n  0x1f\n    /* \"#utility.yul\":4895:4901   */\n  dup10\n    /* \"#utility.yul\":4891:4908   */\n  and\n    /* \"#utility.yul\":4880:4889   */\n  dup3\n    /* \"#utility.yul\":4861:4909   */\n  tag_36\n  jump\t// in\ntag_103:\n    /* \"#utility.yul\":4853:4859   */\n  dup4\n    /* \"#utility.yul\":4846:4910   */\n  sstore\n    /* \"#utility.yul\":4768:4924   */\n  pop\n    /* \"#utility.yul\":4745:4924   */\ntag_102:\n    /* \"#utility.yul\":4970:4971   */\n  0x01\n    /* \"#utility.yul\":4966:4967   */\n  0x02\n    /* \"#utility.yul\":4958:4964   */\n  dup9\n    /* \"#utility.yul\":4954:4968   */\n  mul\n    /* \"#utility.yul\":4950:4972   */\n  add\n    /* \"#utility.yul\":4944:4948   */\n  dup9\n    /* \"#utility.yul\":4937:4973   */\n  sstore\n    /* \"#utility.yul\":4372:4983   */\n  pop\n  pop\n  pop\n    /* \"#utility.yul\":4335:5222   */\ntag_94:\n  pop\n    /* \"#utility.yul\":3925:5228   */\n  pop\n  pop\n  pop\n    /* \"#utility.yul\":3833:5228   */\n  pop\n  pop\n  jump\t// out\n    /* \"#utility.yul\":5234:5414   */\ntag_38:\n    /* \"#utility.yul\":5282:5359   */\n  0x4e487b7100000000000000000000000000000000000000000000000000000000\n    /* \"#utility.yul\":5279:5280   */\n  0x00\n    /* \"#utility.yul\":5272:5360   */\n  mstore\n    /* \"#utility.yul\":5379:5383   */\n  0x11\n    /* \"#utility.yul\":5376:5377   */\n  0x04\n    /* \"#utility.yul\":5369:5384   */\n  mstore\n    /* \"#utility.yul\":5403:5407   */\n  0x24\n    /* \"#utility.yul\":5400:5401   */\n  0x00\n    /* \"#utility.yul\":5393:5408   */\n  revert\n    /* \"#utility.yul\":5420:5522   */\ntag_39:\n    /* \"#utility.yul\":5462:5470   */\n  0x00\n    /* \"#utility.yul\":5509:5514   */\n  dup2\n    /* \"#utility.yul\":5506:5507   */\n  0x01\n    /* \"#utility.yul\":5502:5515   */\n  shr\n    /* \"#utility.yul\":5481:5515   */\n  swap1\n  pop\n    /* \"#utility.yul\":5420:5522   */\n  swap2\n  swap1\n  pop\n  jump\t// out\n    /* \"#utility.yul\":5528:6376   */\ntag_40:\n    /* \"#utility.yul\":5589:5594   */\n  0x00\n    /* \"#utility.yul\":5596:5600   */\n  dup1\n    /* \"#utility.yul\":5620:5626   */\n  dup3\n    /* \"#utility.yul\":5611:5626   */\n  swap2\n  pop\n    /* \"#utility.yul\":5644:5649   */\n  dup4\n    /* \"#utility.yul\":5635:5649   */\n  swap1\n  pop\n    /* \"#utility.yul\":5658:6370   */\ntag_107:\n    /* \"#utility.yul\":5679:5680   */\n  0x01\n    /* \"#utility.yul\":5669:5677   */\n  dup6\n    /* \"#utility.yul\":5666:5681   */\n  gt\n    /* \"#utility.yul\":5658:6370   */\n  iszero\n  tag_109\n  jumpi\n    /* \"#utility.yul\":5774:5778   */\n  dup1\n    /* \"#utility.yul\":5769:5772   */\n  dup7\n    /* \"#utility.yul\":5765:5779   */\n  div\n    /* \"#utility.yul\":5759:5763   */\n  dup2\n    /* \"#utility.yul\":5756:5780   */\n  gt\n    /* \"#utility.yul\":5753:5803   */\n  iszero\n  tag_110\n  jumpi\n    /* \"#utility.yul\":5783:5801   */\n  tag_111\n  tag_38\n  jump\t// in\ntag_111:\n    /* \"#utility.yul\":5753:5803   */\ntag_110:\n    /* \"#utility.yul\":5833:5834   */\n  0x01\n    /* \"#utility.yul\":5823:5831   */\n  dup6\n    /* \"#utility.yul\":5819:5835   */\n  and\n    /* \"#utility.yul\":5816:6267   */\n  iszero\n  tag_112\n  jumpi\n    /* \"#utility.yul\":6248:6252   */\n  dup1\n    /* \"#utility.yul\":6241:6246   */\n  dup3\n    /* \"#utility.yul\":6237:6253   */\n  mul\n    /* \"#utility.yul\":6228:6253   */\n  swap2\n  pop\n    /* \"#utility.yul\":5816:6267   */\ntag_112:\n    /* \"#utility.yul\":6298:6302   */\n  dup1\n    /* \"#utility.yul\":6292:6296   */\n  dup2\n    /* \"#utility.yul\":6288:6303   */\n  mul\n    /* \"#utility.yul\":6280:6303   */\n  swap1\n  pop\n    /* \"#utility.yul\":6328:6360   */\n  tag_113\n    /* \"#utility.yul\":6351:6359   */\n  dup6\n    /* \"#utility.yul\":6328:6360   */\n  tag_39\n  jump\t// in\ntag_113:\n    /* \"#utility.yul\":6316:6360   */\n  swap5\n  pop\n    /* \"#utility.yul\":5658:6370   */\n  jump(tag_107)\ntag_109:\n    /* \"#utility.yul\":5528:6376   */\n  swap5\n  pop\n  swap5\n  swap3\n  pop\n  pop\n  pop\n  jump\t// out\n    /* \"#utility.yul\":6382:7455   */\ntag_41:\n    /* \"#utility.yul\":6436:6441   */\n  0x00\n    /* \"#utility.yul\":6627:6635   */\n  dup3\n    /* \"#utility.yul\":6617:6657   */\n  tag_115\n  jumpi\n    /* \"#utility.yul\":6648:6649   */\n  0x01\n    /* \"#utility.yul\":6639:6649   */\n  swap1\n  pop\n    /* \"#utility.yul\":6650:6655   */\n  jump(tag_114)\n    /* \"#utility.yul\":6617:6657   */\ntag_115:\n    /* \"#utility.yul\":6676:6680   */\n  dup2\n    /* \"#utility.yul\":6666:6702   */\n  tag_116\n  jumpi\n    /* \"#utility.yul\":6693:6694   */\n  0x00\n    /* \"#utility.yul\":6684:6694   */\n  swap1\n  pop\n    /* \"#utility.yul\":6695:6700   */\n  jump(tag_114)\n    /* \"#utility.yul\":6666:6702   */\ntag_116:\n    /* \"#utility.yul\":6762:6766   */\n  dup2\n    /* \"#utility.yul\":6810:6811   */\n  0x01\n    /* \"#utility.yul\":6805:6832   */\n  dup2\n  eq\n  tag_118\n  jumpi\n    /* \"#utility.yul\":6846:6847   */\n  0x02\n    /* \"#utility.yul\":6841:7032   */\n  dup2\n  eq\n  tag_119\n  jumpi\n    /* \"#utility.yul\":6755:7032   */\n  jump(tag_117)\n    /* \"#utility.yul\":6805:6832   */\ntag_118:\n    /* \"#utility.yul\":6823:6824   */\n  0x01\n    /* \"#utility.yul\":6814:6824   */\n  swap2\n  pop\n    /* \"#utility.yul\":6825:6830   */\n  pop\n  jump(tag_114)\n    /* \"#utility.yul\":6841:7032   */\ntag_119:\n    /* \"#utility.yul\":6886:6889   */\n  0xff\n    /* \"#utility.yul\":6876:6884   */\n  dup5\n    /* \"#utility.yul\":6873:6890   */\n  gt\n    /* \"#utility.yul\":6870:6913   */\n  iszero\n  tag_120\n  jumpi\n    /* \"#utility.yul\":6893:6911   */\n  tag_121\n  tag_38\n  jump\t// in\ntag_121:\n    /* \"#utility.yul\":6870:6913   */\ntag_120:\n    /* \"#utility.yul\":6942:6950   */\n  dup4\n    /* \"#utility.yul\":6939:6940   */\n  0x02\n    /* \"#utility.yul\":6935:6951   */\n  exp\n    /* \"#utility.yul\":6926:6951   */\n  swap2\n  pop\n    /* \"#utility.yul\":6977:6980   */\n  dup5\n    /* \"#utility.yul\":6970:6975   */\n  dup3\n    /* \"#utility.yul\":6967:6981   */\n  gt\n    /* \"#utility.yul\":6964:7004   */\n  iszero\n  tag_122\n  jumpi\n    /* \"#utility.yul\":6984:7002   */\n  tag_123\n  tag_38\n  jump\t// in\ntag_123:\n    /* \"#utility.yul\":6964:7004   */\ntag_122:\n    /* \"#utility.yul\":7017:7022   */\n  pop\n  jump(tag_114)\n    /* \"#utility.yul\":6755:7032   */\ntag_117:\n  pop\n    /* \"#utility.yul\":7141:7143   */\n  0x20\n    /* \"#utility.yul\":7131:7139   */\n  dup4\n    /* \"#utility.yul\":7128:7144   */\n  lt\n    /* \"#utility.yul\":7122:7125   */\n  0x0133\n    /* \"#utility.yul\":7116:7120   */\n  dup4\n    /* \"#utility.yul\":7113:7126   */\n  lt\n    /* \"#utility.yul\":7109:7145   */\n  and\n    /* \"#utility.yul\":7091:7093   */\n  0x4e\n    /* \"#utility.yul\":7081:7089   */\n  dup5\n    /* \"#utility.yul\":7078:7094   */\n  lt\n    /* \"#utility.yul\":7073:7075   */\n  0x0b\n    /* \"#utility.yul\":7067:7071   */\n  dup5\n    /* \"#utility.yul\":7064:7076   */\n  lt\n    /* \"#utility.yul\":7060:7095   */\n  and\n    /* \"#utility.yul\":7044:7155   */\n  or\n    /* \"#utility.yul\":7041:7287   */\n  iszero\n  tag_124\n  jumpi\n    /* \"#utility.yul\":7197:7205   */\n  dup3\n    /* \"#utility.yul\":7191:7195   */\n  dup3\n    /* \"#utility.yul\":7187:7206   */\n  exp\n    /* \"#utility.yul\":7178:7206   */\n  swap1\n  pop\n    /* \"#utility.yul\":7232:7235   */\n  dup4\n    /* \"#utility.yul\":7225:7230   */\n  dup2\n    /* \"#utility.yul\":7222:7236   */\n  gt\n    /* \"#utility.yul\":7219:7259   */\n  iszero\n  tag_125\n  jumpi\n    /* \"#utility.yul\":7239:7257   */\n  tag_126\n  tag_38\n  jump\t// in\ntag_126:\n    /* \"#utility.yul\":7219:7259   */\ntag_125:\n    /* \"#utility.yul\":7272:7277   */\n  jump(tag_114)\n    /* \"#utility.yul\":7041:7287   */\ntag_124:\n    /* \"#utility.yul\":7312:7354   */\n  tag_127\n    /* \"#utility.yul\":7350:7353   */\n  dup5\n    /* \"#utility.yul\":7340:7348   */\n  dup5\n    /* \"#utility.yul\":7334:7338   */\n  dup5\n    /* \"#utility.yul\":7331:7332   */\n  0x01\n    /* \"#utility.yul\":7312:7354   */\n  tag_40\n  jump\t// in\ntag_127:\n    /* \"#utility.yul\":7297:7354   */\n  swap3\n  pop\n  swap1\n  pop\n    /* \"#utility.yul\":7386:7390   */\n  dup2\n    /* \"#utility.yul\":7381:7384   */\n  dup5\n    /* \"#utility.yul\":7377:7391   */\n  div\n    /* \"#utility.yul\":7370:7375   */\n  dup2\n    /* \"#utility.yul\":7367:7392   */\n  gt\n    /* \"#utility.yul\":7364:7415   */\n  iszero\n  tag_128\n  jumpi\n    /* \"#utility.yul\":7395:7413   */\n  tag_129\n  tag_38\n  jump\t// in\ntag_129:\n    /* \"#utility.yul\":7364:7415   */\ntag_128:\n    /* \"#utility.yul\":7444:7448   */\n  dup2\n    /* \"#utility.yul\":7437:7442   */\n  dup2\n    /* \"#utility.yul\":7433:7449   */\n  mul\n    /* \"#utility.yul\":7424:7449   */\n  swap1\n  pop\n    /* \"#utility.yul\":6382:7455   */\ntag_114:\n  swap4\n  swap3\n  pop\n  pop\n  pop\n  jump\t// out\n    /* \"#utility.yul\":7461:7746   */\ntag_9:\n    /* \"#utility.yul\":7521:7526   */\n  0x00\n    /* \"#utility.yul\":7545:7568   */\n  tag_131\n    /* \"#utility.yul\":7563:7567   */\n  dup3\n    /* \"#utility.yul\":7545:7568   */\n  tag_26\n  jump\t// in\ntag_131:\n    /* \"#utility.yul\":7537:7568   */\n  swap2\n  pop\n    /* \"#utility.yul\":7589:7616   */\n  tag_132\n    /* \"#utility.yul\":7607:7615   */\n  dup4\n    /* \"#utility.yul\":7589:7616   */\n  tag_26\n  jump\t// in\ntag_132:\n    /* \"#utility.yul\":7577:7616   */\n  swap3\n  pop\n    /* \"#utility.yul\":7635:7739   */\n  tag_133\n    /* \"#utility.yul\":7672:7738   */\n  0xffffffffffffffffffffffffffffffffffffffffffffffffffffffffffffffff\n    /* \"#utility.yul\":7662:7670   */\n  dup5\n    /* \"#utility.yul\":7656:7660   */\n  dup5\n    /* \"#utility.yul\":7635:7739   */\n  tag_41\n  jump\t// in\ntag_133:\n    /* \"#utility.yul\":7626:7739   */\n  swap1\n  pop\n    /* \"#utility.yul\":7461:7746   */\n  swap3\n  swap2\n  pop\n  pop\n  jump\t// out\n    /* \"#utility.yul\":7752:8162   */\ntag_11:\n    /* \"#utility.yul\":7792:7799   */\n  0x00\n    /* \"#utility.yul\":7815:7835   */\n  tag_135\n    /* \"#utility.yul\":7833:7834   */\n  dup3\n    /* \"#utility.yul\":7815:7835   */\n  tag_26\n  jump\t// in\ntag_135:\n    /* \"#utility.yul\":7810:7835   */\n  swap2\n  pop\n    /* \"#utility.yul\":7849:7869   */\n  tag_136\n    /* \"#utility.yul\":7867:7868   */\n  dup4\n    /* \"#utility.yul\":7849:7869   */\n  tag_26\n  jump\t// in\ntag_136:\n    /* \"#utility.yul\":7844:7869   */\n  swap3\n  pop\n    /* \"#utility.yul\":7904:7905   */\n  dup3\n    /* \"#utility.yul\":7901:7902   */\n  dup3\n    /* \"#utility.yul\":7897:7906   */\n  mul\n    /* \"#utility.yul\":7926:7956   */\n  tag_137\n    /* \"#utility.yul\":7944:7955   */\n  dup2\n    /* \"#utility.yul\":7926:7956   */\n  tag_26\n  jump\t// in\ntag_137:\n    /* \"#utility.yul\":7915:7956   */\n  swap2\n  pop\n    /* \"#utility.yul\":8105:8106   */\n  dup3\n    /* \"#utility.yul\":8096:8103   */\n  dup3\n    /* \"#utility.yul\":8092:8107   */\n  div\n    /* \"#utility.yul\":8089:8090   */\n  dup5\n    /* \"#utility.yul\":8086:8108   */\n  eq\n    /* \"#utility.yul\":8066:8067   */\n  dup4\n    /* \"#utility.yul\":8059:8068   */\n  iszero\n    /* \"#utility.yul\":8039:8122   */\n  or\n    /* \"#utility.yul\":8016:8155   */\n  tag_138\n  jumpi\n    /* \"#utility.yul\":8135:8153   */\n  tag_139\n  tag_38\n  jump\t// in\ntag_139:\n    /* \"#utility.yul\":8016:8155   */\ntag_138:\n    /* \"#utility.yul\":7800:8162   */\n  pop\n    /* \"#utility.yul\":7752:8162   */\n  swap3\n  swap2\n  pop\n  pop\n  jump\t// out\n    /* \"#utility.yul\":8168:8359   */\ntag_16:\n    /* \"#utility.yul\":8208:8211   */\n  0x00\n    /* \"#utility.yul\":8227:8247   */\n  tag_141\n    /* \"#utility.yul\":8245:8246   */\n  dup3\n    /* \"#utility.yul\":8227:8247   */\n  tag_26\n  jump\t// in\ntag_141:\n    /* \"#utility.yul\":8222:8247   */\n  swap2\n  pop\n    /* \"#utility.yul\":8261:8281   */\n  tag_142\n    /* \"#utility.yul\":8279:8280   */\n  dup4\n    /* \"#utility.yul\":8261:8281   */\n  tag_26\n  jump\t// in\ntag_142:\n    /* \"#utility.yul\":8256:8281   */\n  swap3\n  pop\n    /* \"#utility.yul\":8304:8305   */\n  dup3\n    /* \"#utility.yul\":8301:8302   */\n  dup3\n    /* \"#utility.yul\":8297:8306   */\n  add\n    /* \"#utility.yul\":8290:8306   */\n  swap1\n  pop\n    /* \"#utility.yul\":8325:8328   */\n  dup1\n    /* \"#utility.yul\":8322:8323   */\n  dup3\n    /* \"#utility.yul\":8319:8329   */\n  gt\n    /* \"#utility.yul\":8316:8352   */\n  iszero\n  tag_143\n  jumpi\n    /* \"#utility.yul\":8332:8350   */\n  tag_144\n  tag_38\n  jump\t// in\ntag_144:\n    /* \"#utility.yul\":8316:8352   */\ntag_143:\n    /* \"#utility.yul\":8168:8359   */\n  swap3\n  swap2\n  pop\n  pop\n  jump\t// out\n    /* \"vivica.sol\":58:1468  contract MyToken {... */\ntag_13:\n  dataSize(sub_0)\n  dup1\n  dataOffset(sub_0)\n  0x00\n  codecopy\n  0x00\n  return\nstop\n\nsub_0: assembly {\n        /* \"vivica.sol\":58:1468  contract MyToken {... */\n      mstore(0x40, 0x80)\n      callvalue\n      dup1\n      iszero\n      tag_1\n      jumpi\n      0x00\n      dup1\n      revert\n    tag_1:\n      pop\n      jumpi(tag_2, lt(calldatasize, 0x04))\n      shr(0xe0, calldataload(0x00))\n      dup1\n      0x70a08231\n      gt\n      tag_18\n      jumpi\n      dup1\n      0x8da5cb5b\n      gt\n      tag_19\n      jumpi\n      dup1\n      0x8da5cb5b\n      eq\n      tag_14\n      jumpi\n      dup1\n      0x95d89b41\n      eq\n      tag_15\n      jumpi\n      dup1\n      0xde242ff4\n      eq\n      tag_16\n      jumpi\n      dup1\n      0xf0141d84\n      eq\n      tag_17\n      jumpi\n      jump(tag_2)\n    tag_19:\n      dup1\n      0x70a08231\n      eq\n      tag_10\n      jumpi\n      dup1\n      0x811c34d3\n      eq\n      tag_11\n      jumpi\n      dup1\n      0x862b092b\n      eq\n      tag_12\n      jumpi\n      dup1\n      0x8a4068dd\n      eq\n      tag_13\n      jumpi\n      jump(tag_2)\n    tag_18:\n      dup1\n      0x18160ddd\n      gt\n      tag_20\n      jumpi\n      dup1\n      0x18160ddd\n      eq\n      tag_6\n      jumpi\n      dup1\n      0x313ce567\n      eq\n      tag_7\n      jumpi\n      dup1\n      0x40c10f19\n      eq\n      tag_8\n      jumpi\n      dup1\n      0x6ebcf607\n      eq\n      tag_9\n      jumpi\n      jump(tag_2)\n    tag_20:\n      dup1\n      0x06fdde03\n      eq\n      tag_3\n      jumpi\n      dup1\n      0x12424e3f\n      eq\n      tag_4\n      jumpi\n      dup1\n      0x15070401\n      eq\n      tag_5\n      jumpi\n    tag_2:\n      0x00\n      dup1\n      revert\n        /* \"vivica.sol\":82:100  string public name */\n    tag_3:\n      tag_21\n      tag_22\n      jump\t// in\n    tag_21:\n      mload(0x40)\n      tag_23\n      swap2\n      swap1\n      tag_24\n      jump\t// in\n    tag_23:\n      mload(0x40)\n      dup1\n      swap2\n      sub\n      swap1\n      return\n        /* \"vivica.sol\":1388:1423  function approve () public {... */\n    tag_4:\n      tag_25\n      tag_26\n      jump\t// in\n    tag_25:\n      stop\n        /* \"vivica.sol\":907:995  function getSymbol () public view returns (string memory) {... */\n    tag_5:\n      tag_27\n      tag_28\n      jump\t// in\n    tag_27:\n      mload(0x40)\n      tag_29\n      swap2\n      swap1\n      tag_24\n      jump\t// in\n    tag_29:\n      mload(0x40)\n      dup1\n      swap2\n      sub\n      swap1\n      return\n        /* \"vivica.sol\":1091:1180  function totalSupply() public view returns (uint256) {... */\n    tag_6:\n      tag_30\n      tag_31\n      jump\t// in\n    tag_30:\n      mload(0x40)\n      tag_32\n      swap2\n      swap1\n      tag_33\n      jump\t// in\n    tag_32:\n      mload(0x40)\n      dup1\n      swap2\n      sub\n      swap1\n      return\n        /* \"vivica.sol\":132:153  uint8 public decimals */\n    tag_7:\n      tag_34\n      tag_35\n      jump\t// in\n    tag_34:\n      mload(0x40)\n      tag_36\n      swap2\n      swap1\n      tag_37\n      jump\t// in\n    tag_36:\n      mload(0x40)\n      dup1\n      swap2\n      sub\n      swap1\n      return\n        /* \"vivica.sol\":599:806  function mint (address account, uint256 amount) public {... */\n    tag_8:\n      tag_38\n      0x04\n      dup1\n      calldatasize\n      sub\n      dup2\n      add\n      swap1\n      tag_39\n      swap2\n      swap1\n      tag_40\n      jump\t// in\n    tag_39:\n      tag_41\n      jump\t// in\n    tag_38:\n      stop\n        /* \"vivica.sol\":400:452  mapping(address account => uint256) public _balances */\n    tag_9:\n      tag_42\n      0x04\n      dup1\n      calldatasize\n      sub\n      dup2\n      add\n      swap1\n      tag_43\n      swap2\n      swap1\n      tag_44\n      jump\t// in\n    tag_43:\n      tag_45\n      jump\t// in\n    tag_42:\n      mload(0x40)\n      tag_46\n      swap2\n      swap1\n      tag_33\n      jump\t// in\n    tag_46:\n      mload(0x40)\n      dup1\n      swap2\n      sub\n      swap1\n      return\n        /* \"vivica.sol\":1186:1294  function balanceOf(address account) public view returns (uint256) {... */\n    tag_10:\n      tag_47\n      0x04\n      dup1\n      calldatasize\n      sub\n      dup2\n      add\n      swap1\n      tag_48\n      swap2\n      swap1\n      tag_44\n      jump\t// in\n    tag_48:\n      tag_49\n      jump\t// in\n    tag_47:\n      mload(0x40)\n      tag_50\n      swap2\n      swap1\n      tag_33\n      jump\t// in\n    tag_50:\n      mload(0x40)\n      dup1\n      swap2\n      sub\n      swap1\n      return\n        /* \"vivica.sol\":1342:1382  function transferFrom () public {... */\n    tag_11:\n      tag_51\n      tag_52\n      jump\t// in\n    tag_51:\n      stop\n        /* \"vivica.sol\":812:901  function getTokenName () public view returns (string memory) {... */\n    tag_12:\n      tag_53\n      tag_54\n      jump\t// in\n    tag_53:\n      mload(0x40)\n      tag_55\n      swap2\n      swap1\n      tag_24\n      jump\t// in\n    tag_55:\n      mload(0x40)\n      dup1\n      swap2\n      sub\n      swap1\n      return\n        /* \"vivica.sol\":1300:1336  function transfer () public {... */\n    tag_13:\n      tag_56\n      tag_57\n      jump\t// in\n    tag_56:\n      stop\n        /* \"vivica.sol\":190:210  address public owner */\n    tag_14:\n      tag_58\n      tag_59\n      jump\t// in\n    tag_58:\n      mload(0x40)\n      tag_60\n      swap2\n      swap1\n      tag_61\n      jump\t// in\n    tag_60:\n      mload(0x40)\n      dup1\n      swap2\n      sub\n      swap1\n      return\n        /* \"vivica.sol\":106:126  string public symbol */\n    tag_15:\n      tag_62\n      tag_63\n      jump\t// in\n    tag_62:\n      mload(0x40)\n      tag_64\n      swap2\n      swap1\n      tag_24\n      jump\t// in\n    tag_64:\n      mload(0x40)\n      dup1\n      swap2\n      sub\n      swap1\n      return\n        /* \"vivica.sol\":1429:1466  function allowance () public {... */\n    tag_16:\n      tag_65\n      tag_66\n      jump\t// in\n    tag_65:\n      stop\n        /* \"vivica.sol\":1001:1085  function getDecimals () public view returns (uint8) {... */\n    tag_17:\n      tag_67\n      tag_68\n      jump\t// in\n    tag_67:\n      mload(0x40)\n      tag_69\n      swap2\n      swap1\n      tag_37\n      jump\t// in\n    tag_69:\n      mload(0x40)\n      dup1\n      swap2\n      sub\n      swap1\n      return\n        /* \"vivica.sol\":82:100  string public name */\n    tag_22:\n      0x00\n      dup1\n      sload\n      tag_70\n      swap1\n      tag_71\n      jump\t// in\n    tag_70:\n      dup1\n      0x1f\n      add\n      0x20\n      dup1\n      swap2\n      div\n      mul\n      0x20\n      add\n      mload(0x40)\n      swap1\n      dup2\n      add\n      0x40\n      mstore\n      dup1\n      swap3\n      swap2\n      swap1\n      dup2\n      dup2\n      mstore\n      0x20\n      add\n      dup3\n      dup1\n      sload\n      tag_72\n      swap1\n      tag_71\n      jump\t// in\n    tag_72:\n      dup1\n      iszero\n      tag_73\n      jumpi\n      dup1\n      0x1f\n      lt\n      tag_74\n      jumpi\n      0x0100\n      dup1\n      dup4\n      sload\n      div\n      mul\n      dup4\n      mstore\n      swap2\n      0x20\n      add\n      swap2\n      jump(tag_73)\n    tag_74:\n      dup3\n      add\n      swap2\n      swap1\n      0x00\n      mstore\n      keccak256(0x00, 0x20)\n      swap1\n    tag_75:\n      dup2\n      sload\n      dup2\n      mstore\n      swap1\n      0x01\n      add\n      swap1\n      0x20\n      add\n      dup1\n      dup4\n      gt\n      tag_75\n      jumpi\n      dup3\n      swap1\n      sub\n      0x1f\n      and\n      dup3\n      add\n      swap2\n    tag_73:\n      pop\n      pop\n      pop\n      pop\n      pop\n      dup2\n      jump\t// out\n        /* \"vivica.sol\":1388:1423  function approve () public {... */\n    tag_26:\n      jump\t// out\n        /* \"vivica.sol\":907:995  function getSymbol () public view returns (string memory) {... */\n    tag_28:\n        /* \"vivica.sol\":950:963  string memory */\n      0x60\n        /* \"vivica.sol\":982:988  symbol */\n      0x01\n        /* \"vivica.sol\":975:988  return symbol */\n      dup1\n      sload\n      tag_78\n      swap1\n      tag_71\n      jump\t// in\n    tag_78:\n      dup1\n      0x1f\n      add\n      0x20\n      dup1\n      swap2\n      div\n      mul\n      0x20\n      add\n      mload(0x40)\n      swap1\n      dup2\n      add\n      0x40\n      mstore\n      dup1\n      swap3\n      swap2\n      swap1\n      dup2\n      dup2\n      mstore\n      0x20\n      add\n      dup3\n      dup1\n      sload\n      tag_79\n      swap1\n      tag_71\n      jump\t// in\n    tag_79:\n      dup1\n      iszero\n      tag_80\n      jumpi\n      dup1\n      0x1f\n      lt\n      tag_81\n      jumpi\n      0x0100\n      dup1\n      dup4\n      sload\n      div\n      mul\n      dup4\n      mstore\n      swap2\n      0x20\n      add\n      swap2\n      jump(tag_80)\n    tag_81:\n      dup3\n      add\n      swap2\n      swap1\n      0x00\n      mstore\n      keccak256(0x00, 0x20)\n      swap1\n    tag_82:\n      dup2\n      sload\n      dup2\n      mstore\n      swap1\n      0x01\n      add\n      swap1\n      0x20\n      add\n      dup1\n      dup4\n      gt\n      tag_82\n      jumpi\n      dup3\n      swap1\n      sub\n      0x1f\n      and\n      dup3\n      add\n      swap2\n    tag_80:\n      pop\n      pop\n      pop\n      pop\n      pop\n      swap1\n      pop\n        /* \"vivica.sol\":907:995  function getSymbol () public view returns (string memory) {... */\n      swap1\n      jump\t// out\n        /* \"vivica.sol\":1091:1180  function totalSupply() public view returns (uint256) {... */\n    tag_31:\n        /* \"vivica.sol\":1135:1142  uint256 */\n      0x00\n        /* \"vivica.sol\":1161:1173  _totalSupply */\n      sload(0x03)\n        /* \"vivica.sol\":1154:1173  return _totalSupply */\n      swap1\n      pop\n        /* \"vivica.sol\":1091:1180  function totalSupply() public view returns (uint256) {... */\n      swap1\n      jump\t// out\n        /* \"vivica.sol\":132:153  uint8 public decimals */\n    tag_35:\n      0x02\n      0x00\n      swap1\n      sload\n      swap1\n      0x0100\n      exp\n      swap1\n      div\n      0xff\n      and\n      dup2\n      jump\t// out\n        /* \"vivica.sol\":599:806  function mint (address account, uint256 amount) public {... */\n    tag_41:\n        /* \"vivica.sol\":686:691  owner */\n      0x04\n      0x00\n      swap1\n      sload\n      swap1\n      0x0100\n      exp\n      swap1\n      div\n      0xffffffffffffffffffffffffffffffffffffffff\n      and\n        /* \"vivica.sol\":672:691  msg.sender == owner */\n      0xffffffffffffffffffffffffffffffffffffffff\n      and\n        /* \"vivica.sol\":672:682  msg.sender */\n      caller\n        /* \"vivica.sol\":672:691  msg.sender == owner */\n      0xffffffffffffffffffffffffffffffffffffffff\n      and\n      eq\n        /* \"vivica.sol\":664:708  require(msg.sender == owner, \"Not allowed!\") */\n      tag_85\n      jumpi\n      mload(0x40)\n      0x08c379a000000000000000000000000000000000000000000000000000000000\n      dup2\n      mstore\n      0x04\n      add\n      tag_86\n      swap1\n      tag_87\n      jump\t// in\n    tag_86:\n      mload(0x40)\n      dup1\n      swap2\n      sub\n      swap1\n      revert\n    tag_85:\n        /* \"vivica.sol\":718:732  uint rawAmount */\n      0x00\n        /* \"vivica.sol\":755:763  decimals */\n      0x02\n      0x00\n      swap1\n      sload\n      swap1\n      0x0100\n      exp\n      swap1\n      div\n      0xff\n      and\n        /* \"vivica.sol\":750:764  uint(decimals) */\n      0xff\n      and\n        /* \"vivica.sol\":744:746  10 */\n      0x0a\n        /* \"vivica.sol\":744:764  10 ** uint(decimals) */\n      tag_88\n      swap2\n      swap1\n      tag_89\n      jump\t// in\n    tag_88:\n        /* \"vivica.sol\":735:741  amount */\n      dup3\n        /* \"vivica.sol\":735:764  amount * 10 ** uint(decimals) */\n      tag_90\n      swap2\n      swap1\n      tag_91\n      jump\t// in\n    tag_90:\n        /* \"vivica.sol\":718:764  uint rawAmount = amount * 10 ** uint(decimals) */\n      swap1\n      pop\n        /* \"vivica.sol\":774:799  _mint(account, rawAmount) */\n      tag_92\n        /* \"vivica.sol\":780:787  account */\n      dup4\n        /* \"vivica.sol\":789:798  rawAmount */\n      dup3\n        /* \"vivica.sol\":774:779  _mint */\n      tag_93\n        /* \"vivica.sol\":774:799  _mint(account, rawAmount) */\n      jump\t// in\n    tag_92:\n        /* \"vivica.sol\":654:806  {... */\n      pop\n        /* \"vivica.sol\":599:806  function mint (address account, uint256 amount) public {... */\n      pop\n      pop\n      jump\t// out\n        /* \"vivica.sol\":400:452  mapping(address account => uint256) public _balances */\n    tag_45:\n      mstore(0x20, 0x05)\n      dup1\n      0x00\n      mstore\n      keccak256(0x00, 0x40)\n      0x00\n      swap2\n      pop\n      swap1\n      pop\n      sload\n      dup2\n      jump\t// out\n        /* \"vivica.sol\":1186:1294  function balanceOf(address account) public view returns (uint256) {... */\n    tag_49:\n        /* \"vivica.sol\":1243:1250  uint256 */\n      0x00\n        /* \"vivica.sol\":1269:1278  _balances */\n      0x05\n        /* \"vivica.sol\":1269:1287  _balances[account] */\n      0x00\n        /* \"vivica.sol\":1279:1286  account */\n      dup4\n        /* \"vivica.sol\":1269:1287  _balances[account] */\n      0xffffffffffffffffffffffffffffffffffffffff\n      and\n      0xffffffffffffffffffffffffffffffffffffffff\n      and\n      dup2\n      mstore\n      0x20\n      add\n      swap1\n      dup2\n      mstore\n      0x20\n      add\n      0x00\n      keccak256\n      sload\n        /* \"vivica.sol\":1262:1287  return _balances[account] */\n      swap1\n      pop\n        /* \"vivica.sol\":1186:1294  function balanceOf(address account) public view returns (uint256) {... */\n      swap2\n      swap1\n      pop\n      jump\t// out\n        /* \"vivica.sol\":1342:1382  function transferFrom () public {... */\n    tag_52:\n      jump\t// out\n        /* \"vivica.sol\":812:901  function getTokenName () public view returns (string memory) {... */\n    tag_54:\n        /* \"vivica.sol\":858:871  string memory */\n      0x60\n        /* \"vivica.sol\":890:894  name */\n      0x00\n        /* \"vivica.sol\":883:894  return name */\n      dup1\n      sload\n      tag_97\n      swap1\n      tag_71\n      jump\t// in\n    tag_97:\n      dup1\n      0x1f\n      add\n      0x20\n      dup1\n      swap2\n      div\n      mul\n      0x20\n      add\n      mload(0x40)\n      swap1\n      dup2\n      add\n      0x40\n      mstore\n      dup1\n      swap3\n      swap2\n      swap1\n      dup2\n      dup2\n      mstore\n      0x20\n      add\n      dup3\n      dup1\n      sload\n      tag_98\n      swap1\n      tag_71\n      jump\t// in\n    tag_98:\n      dup1\n      iszero\n      tag_99\n      jumpi\n      dup1\n      0x1f\n      lt\n      tag_100\n      jumpi\n      0x0100\n      dup1\n      dup4\n      sload\n      div\n      mul\n      dup4\n      mstore\n      swap2\n      0x20\n      add\n      swap2\n      jump(tag_99)\n    tag_100:\n      dup3\n      add\n      swap2\n      swap1\n      0x00\n      mstore\n      keccak256(0x00, 0x20)\n      swap1\n    tag_101:\n      dup2\n      sload\n      dup2\n      mstore\n      swap1\n      0x01\n      add\n      swap1\n      0x20\n      add\n      dup1\n      dup4\n      gt\n      tag_101\n      jumpi\n      dup3\n      swap1\n      sub\n      0x1f\n      and\n      dup3\n      add\n      swap2\n    tag_99:\n      pop\n      pop\n      pop\n      pop\n      pop\n      swap1\n      pop\n        /* \"vivica.sol\":812:901  function getTokenName () public view returns (string memory) {... */\n      swap1\n      jump\t// out\n        /* \"vivica.sol\":1300:1336  function transfer () public {... */\n    tag_57:\n      jump\t// out\n        /* \"vivica.sol\":190:210  address public owner */\n    tag_59:\n      0x04\n      0x00\n      swap1\n      sload\n      swap1\n      0x0100\n      exp\n      swap1\n      div\n      0xffffffffffffffffffffffffffffffffffffffff\n      and\n      dup2\n      jump\t// out\n        /* \"vivica.sol\":106:126  string public symbol */\n    tag_63:\n      0x01\n      dup1\n      sload\n      tag_103\n      swap1\n      tag_71\n      jump\t// in\n    tag_103:\n      dup1\n      0x1f\n      add\n      0x20\n      dup1\n      swap2\n      div\n      mul\n      0x20\n      add\n      mload(0x40)\n      swap1\n      dup2\n      add\n      0x40\n      mstore\n      dup1\n      swap3\n      swap2\n      swap1\n      dup2\n      dup2\n      mstore\n      0x20\n      add\n      dup3\n      dup1\n      sload\n      tag_104\n      swap1\n      tag_71\n      jump\t// in\n    tag_104:\n      dup1\n      iszero\n      tag_105\n      jumpi\n      dup1\n      0x1f\n      lt\n      tag_106\n      jumpi\n      0x0100\n      dup1\n      dup4\n      sload\n      div\n      mul\n      dup4\n      mstore\n      swap2\n      0x20\n      add\n      swap2\n      jump(tag_105)\n    tag_106:\n      dup3\n      add\n      swap2\n      swap1\n      0x00\n      mstore\n      keccak256(0x00, 0x20)\n      swap1\n    tag_107:\n      dup2\n      sload\n      dup2\n      mstore\n      swap1\n      0x01\n      add\n      swap1\n      0x20\n      add\n      dup1\n      dup4\n      gt\n      tag_107\n      jumpi\n      dup3\n      swap1\n      sub\n      0x1f\n      and\n      dup3\n      add\n      swap2\n    tag_105:\n      pop\n      pop\n      pop\n      pop\n      pop\n      dup2\n      jump\t// out\n        /* \"vivica.sol\":1429:1466  function allowance () public {... */\n    tag_66:\n      jump\t// out\n        /* \"vivica.sol\":1001:1085  function getDecimals () public view returns (uint8) {... */\n    tag_68:\n        /* \"vivica.sol\":1046:1051  uint8 */\n      0x00\n        /* \"vivica.sol\":1070:1078  decimals */\n      0x02\n      0x00\n      swap1\n      sload\n      swap1\n      0x0100\n      exp\n      swap1\n      div\n      0xff\n      and\n        /* \"vivica.sol\":1063:1078  return decimals */\n      swap1\n      pop\n        /* \"vivica.sol\":1001:1085  function getDecimals () public view returns (uint8) {... */\n      swap1\n      jump\t// out\n        /* \"vivica.sol\":459:593  function _mint (address account, uint256 amount) internal {... */\n    tag_93:\n        /* \"vivica.sol\":548:554  amount */\n      dup1\n        /* \"vivica.sol\":527:536  _balances */\n      0x05\n        /* \"vivica.sol\":527:545  _balances[account] */\n      0x00\n        /* \"vivica.sol\":537:544  account */\n      dup5\n        /* \"vivica.sol\":527:545  _balances[account] */\n      0xffffffffffffffffffffffffffffffffffffffff\n      and\n      0xffffffffffffffffffffffffffffffffffffffff\n      and\n      dup2\n      mstore\n      0x20\n      add\n      swap1\n      dup2\n      mstore\n      0x20\n      add\n      0x00\n      keccak256\n      0x00\n        /* \"vivica.sol\":527:554  _balances[account]+= amount */\n      dup3\n      dup3\n      sload\n      tag_111\n      swap2\n      swap1\n      tag_112\n      jump\t// in\n    tag_111:\n      swap3\n      pop\n      pop\n      dup2\n      swap1\n      sstore\n      pop\n        /* \"vivica.sol\":580:586  amount */\n      dup1\n        /* \"vivica.sol\":564:576  _totalSupply */\n      0x03\n      0x00\n        /* \"vivica.sol\":564:586  _totalSupply += amount */\n      dup3\n      dup3\n      sload\n      tag_113\n      swap2\n      swap1\n      tag_112\n      jump\t// in\n    tag_113:\n      swap3\n      pop\n      pop\n      dup2\n      swap1\n      sstore\n      pop\n        /* \"vivica.sol\":459:593  function _mint (address account, uint256 amount) internal {... */\n      pop\n      pop\n      jump\t// out\n        /* \"#utility.yul\":7:106   */\n    tag_114:\n        /* \"#utility.yul\":59:65   */\n      0x00\n        /* \"#utility.yul\":93:98   */\n      dup2\n        /* \"#utility.yul\":87:99   */\n      mload\n        /* \"#utility.yul\":77:99   */\n      swap1\n      pop\n        /* \"#utility.yul\":7:106   */\n      swap2\n      swap1\n      pop\n      jump\t// out\n        /* \"#utility.yul\":112:281   */\n    tag_115:\n        /* \"#utility.yul\":196:207   */\n      0x00\n        /* \"#utility.yul\":230:236   */\n      dup3\n        /* \"#utility.yul\":225:228   */\n      dup3\n        /* \"#utility.yul\":218:237   */\n      mstore\n        /* \"#utility.yul\":270:274   */\n      0x20\n        /* \"#utility.yul\":265:268   */\n      dup3\n        /* \"#utility.yul\":261:275   */\n      add\n        /* \"#utility.yul\":246:275   */\n      swap1\n      pop\n        /* \"#utility.yul\":112:281   */\n      swap3\n      swap2\n      pop\n      pop\n      jump\t// out\n        /* \"#utility.yul\":287:533   */\n    tag_116:\n        /* \"#utility.yul\":368:369   */\n      0x00\n        /* \"#utility.yul\":378:491   */\n    tag_144:\n        /* \"#utility.yul\":392:398   */\n      dup4\n        /* \"#utility.yul\":389:390   */\n      dup2\n        /* \"#utility.yul\":386:399   */\n      lt\n        /* \"#utility.yul\":378:491   */\n      iszero\n      tag_146\n      jumpi\n        /* \"#utility.yul\":477:478   */\n      dup1\n        /* \"#utility.yul\":472:475   */\n      dup3\n        /* \"#utility.yul\":468:479   */\n      add\n        /* \"#utility.yul\":462:480   */\n      mload\n        /* \"#utility.yul\":458:459   */\n      dup2\n        /* \"#utility.yul\":453:456   */\n      dup5\n        /* \"#utility.yul\":449:460   */\n      add\n        /* \"#utility.yul\":442:481   */\n      mstore\n        /* \"#utility.yul\":414:416   */\n      0x20\n        /* \"#utility.yul\":411:412   */\n      dup2\n        /* \"#utility.yul\":407:417   */\n      add\n        /* \"#utility.yul\":402:417   */\n      swap1\n      pop\n        /* \"#utility.yul\":378:491   */\n      jump(tag_144)\n    tag_146:\n        /* \"#utility.yul\":525:526   */\n      0x00\n        /* \"#utility.yul\":516:522   */\n      dup5\n        /* \"#utility.yul\":511:514   */\n      dup5\n        /* \"#utility.yul\":507:523   */\n      add\n        /* \"#utility.yul\":500:527   */\n      mstore\n        /* \"#utility.yul\":349:533   */\n      pop\n        /* \"#utility.yul\":287:533   */\n      pop\n      pop\n      pop\n      jump\t// out\n        /* \"#utility.yul\":539:641   */\n    tag_117:\n        /* \"#utility.yul\":580:586   */\n      0x00\n        /* \"#utility.yul\":631:633   */\n      0x1f\n        /* \"#utility.yul\":627:634   */\n      not\n        /* \"#utility.yul\":622:624   */\n      0x1f\n        /* \"#utility.yul\":615:620   */\n      dup4\n        /* \"#utility.yul\":611:625   */\n      add\n        /* \"#utility.yul\":607:635   */\n      and\n        /* \"#utility.yul\":597:635   */\n      swap1\n      pop\n        /* \"#utility.yul\":539:641   */\n      swap2\n      swap1\n      pop\n      jump\t// out\n        /* \"#utility.yul\":647:1024   */\n    tag_118:\n        /* \"#utility.yul\":735:738   */\n      0x00\n        /* \"#utility.yul\":763:802   */\n      tag_149\n        /* \"#utility.yul\":796:801   */\n      dup3\n        /* \"#utility.yul\":763:802   */\n      tag_114\n      jump\t// in\n    tag_149:\n        /* \"#utility.yul\":818:889   */\n      tag_150\n        /* \"#utility.yul\":882:888   */\n      dup2\n        /* \"#utility.yul\":877:880   */\n      dup6\n        /* \"#utility.yul\":818:889   */\n      tag_115\n      jump\t// in\n    tag_150:\n        /* \"#utility.yul\":811:889   */\n      swap4\n      pop\n        /* \"#utility.yul\":898:963   */\n      tag_151\n        /* \"#utility.yul\":956:962   */\n      dup2\n        /* \"#utility.yul\":951:954   */\n      dup6\n        /* \"#utility.yul\":944:948   */\n      0x20\n        /* \"#utility.yul\":937:942   */\n      dup7\n        /* \"#utility.yul\":933:949   */\n      add\n        /* \"#utility.yul\":898:963   */\n      tag_116\n      jump\t// in\n    tag_151:\n        /* \"#utility.yul\":988:1017   */\n      tag_152\n        /* \"#utility.yul\":1010:1016   */\n      dup2\n        /* \"#utility.yul\":988:1017   */\n      tag_117\n      jump\t// in\n    tag_152:\n        /* \"#utility.yul\":983:986   */\n      dup5\n        /* \"#utility.yul\":979:1018   */\n      add\n        /* \"#utility.yul\":972:1018   */\n      swap2\n      pop\n        /* \"#utility.yul\":739:1024   */\n      pop\n        /* \"#utility.yul\":647:1024   */\n      swap3\n      swap2\n      pop\n      pop\n      jump\t// out\n        /* \"#utility.yul\":1030:1343   */\n    tag_24:\n        /* \"#utility.yul\":1143:1147   */\n      0x00\n        /* \"#utility.yul\":1181:1183   */\n      0x20\n        /* \"#utility.yul\":1170:1179   */\n      dup3\n        /* \"#utility.yul\":1166:1184   */\n      add\n        /* \"#utility.yul\":1158:1184   */\n      swap1\n      pop\n        /* \"#utility.yul\":1230:1239   */\n      dup2\n        /* \"#utility.yul\":1224:1228   */\n      dup2\n        /* \"#utility.yul\":1220:1240   */\n      sub\n        /* \"#utility.yul\":1216:1217   */\n      0x00\n        /* \"#utility.yul\":1205:1214   */\n      dup4\n        /* \"#utility.yul\":1201:1218   */\n      add\n        /* \"#utility.yul\":1194:1241   */\n      mstore\n        /* \"#utility.yul\":1258:1336   */\n      tag_154\n        /* \"#utility.yul\":1331:1335   */\n      dup2\n        /* \"#utility.yul\":1322:1328   */\n      dup5\n        /* \"#utility.yul\":1258:1336   */\n      tag_118\n      jump\t// in\n    tag_154:\n        /* \"#utility.yul\":1250:1336   */\n      swap1\n      pop\n        /* \"#utility.yul\":1030:1343   */\n      swap3\n      swap2\n      pop\n      pop\n      jump\t// out\n        /* \"#utility.yul\":1349:1426   */\n    tag_119:\n        /* \"#utility.yul\":1386:1393   */\n      0x00\n        /* \"#utility.yul\":1415:1420   */\n      dup2\n        /* \"#utility.yul\":1404:1420   */\n      swap1\n      pop\n        /* \"#utility.yul\":1349:1426   */\n      swap2\n      swap1\n      pop\n      jump\t// out\n        /* \"#utility.yul\":1432:1550   */\n    tag_120:\n        /* \"#utility.yul\":1519:1543   */\n      tag_157\n        /* \"#utility.yul\":1537:1542   */\n      dup2\n        /* \"#utility.yul\":1519:1543   */\n      tag_119\n      jump\t// in\n    tag_157:\n        /* \"#utility.yul\":1514:1517   */\n      dup3\n        /* \"#utility.yul\":1507:1544   */\n      mstore\n        /* \"#utility.yul\":1432:1550   */\n      pop\n      pop\n      jump\t// out\n        /* \"#utility.yul\":1556:1778   */\n    tag_33:\n        /* \"#utility.yul\":1649:1653   */\n      0x00\n        /* \"#utility.yul\":1687:1689   */\n      0x20\n        /* \"#utility.yul\":1676:1685   */\n      dup3\n        /* \"#utility.yul\":1672:1690   */\n      add\n        /* \"#utility.yul\":1664:1690   */\n      swap1\n      pop\n        /* \"#utility.yul\":1700:1771   */\n      tag_159\n        /* \"#utility.yul\":1768:1769   */\n      0x00\n        /* \"#utility.yul\":1757:1766   */\n      dup4\n        /* \"#utility.yul\":1753:1770   */\n      add\n        /* \"#utility.yul\":1744:1750   */\n      dup5\n        /* \"#utility.yul\":1700:1771   */\n      tag_120\n      jump\t// in\n    tag_159:\n        /* \"#utility.yul\":1556:1778   */\n      swap3\n      swap2\n      pop\n      pop\n      jump\t// out\n        /* \"#utility.yul\":1784:1870   */\n    tag_121:\n        /* \"#utility.yul\":1819:1826   */\n      0x00\n        /* \"#utility.yul\":1859:1863   */\n      0xff\n        /* \"#utility.yul\":1852:1857   */\n      dup3\n        /* \"#utility.yul\":1848:1864   */\n      and\n        /* \"#utility.yul\":1837:1864   */\n      swap1\n      pop\n        /* \"#utility.yul\":1784:1870   */\n      swap2\n      swap1\n      pop\n      jump\t// out\n        /* \"#utility.yul\":1876:1988   */\n    tag_122:\n        /* \"#utility.yul\":1959:1981   */\n      tag_162\n        /* \"#utility.yul\":1975:1980   */\n      dup2\n        /* \"#utility.yul\":1959:1981   */\n      tag_121\n      jump\t// in\n    tag_162:\n        /* \"#utility.yul\":1954:1957   */\n      dup3\n        /* \"#utility.yul\":1947:1982   */\n      mstore\n        /* \"#utility.yul\":1876:1988   */\n      pop\n      pop\n      jump\t// out\n        /* \"#utility.yul\":1994:2208   */\n    tag_37:\n        /* \"#utility.yul\":2083:2087   */\n      0x00\n        /* \"#utility.yul\":2121:2123   */\n      0x20\n        /* \"#utility.yul\":2110:2119   */\n      dup3\n        /* \"#utility.yul\":2106:2124   */\n      add\n        /* \"#utility.yul\":2098:2124   */\n      swap1\n      pop\n        /* \"#utility.yul\":2134:2201   */\n      tag_164\n        /* \"#utility.yul\":2198:2199   */\n      0x00\n        /* \"#utility.yul\":2187:2196   */\n      dup4\n        /* \"#utility.yul\":2183:2200   */\n      add\n        /* \"#utility.yul\":2174:2180   */\n      dup5\n        /* \"#utility.yul\":2134:2201   */\n      tag_122\n      jump\t// in\n    tag_164:\n        /* \"#utility.yul\":1994:2208   */\n      swap3\n      swap2\n      pop\n      pop\n      jump\t// out\n        /* \"#utility.yul\":2295:2412   */\n    tag_124:\n        /* \"#utility.yul\":2404:2405   */\n      0x00\n        /* \"#utility.yul\":2401:2402   */\n      dup1\n        /* \"#utility.yul\":2394:2406   */\n      revert\n        /* \"#utility.yul\":2541:2667   */\n    tag_126:\n        /* \"#utility.yul\":2578:2585   */\n      0x00\n        /* \"#utility.yul\":2618:2660   */\n      0xffffffffffffffffffffffffffffffffffffffff\n        /* \"#utility.yul\":2611:2616   */\n      dup3\n        /* \"#utility.yul\":2607:2661   */\n      and\n        /* \"#utility.yul\":2596:2661   */\n      swap1\n      pop\n        /* \"#utility.yul\":2541:2667   */\n      swap2\n      swap1\n      pop\n      jump\t// out\n        /* \"#utility.yul\":2673:2769   */\n    tag_127:\n        /* \"#utility.yul\":2710:2717   */\n      0x00\n        /* \"#utility.yul\":2739:2763   */\n      tag_170\n        /* \"#utility.yul\":2757:2762   */\n      dup3\n        /* \"#utility.yul\":2739:2763   */\n      tag_126\n      jump\t// in\n    tag_170:\n        /* \"#utility.yul\":2728:2763   */\n      swap1\n      pop\n        /* \"#utility.yul\":2673:2769   */\n      swap2\n      swap1\n      pop\n      jump\t// out\n        /* \"#utility.yul\":2775:2897   */\n    tag_128:\n        /* \"#utility.yul\":2848:2872   */\n      tag_172\n        /* \"#utility.yul\":2866:2871   */\n      dup2\n        /* \"#utility.yul\":2848:2872   */\n      tag_127\n      jump\t// in\n    tag_172:\n        /* \"#utility.yul\":2841:2846   */\n      dup2\n        /* \"#utility.yul\":2838:2873   */\n      eq\n        /* \"#utility.yul\":2828:2891   */\n      tag_173\n      jumpi\n        /* \"#utility.yul\":2887:2888   */\n      0x00\n        /* \"#utility.yul\":2884:2885   */\n      dup1\n        /* \"#utility.yul\":2877:2889   */\n      revert\n        /* \"#utility.yul\":2828:2891   */\n    tag_173:\n        /* \"#utility.yul\":2775:2897   */\n      pop\n      jump\t// out\n        /* \"#utility.yul\":2903:3042   */\n    tag_129:\n        /* \"#utility.yul\":2949:2954   */\n      0x00\n        /* \"#utility.yul\":2987:2993   */\n      dup2\n        /* \"#utility.yul\":2974:2994   */\n      calldataload\n        /* \"#utility.yul\":2965:2994   */\n      swap1\n      pop\n        /* \"#utility.yul\":3003:3036   */\n      tag_175\n        /* \"#utility.yul\":3030:3035   */\n      dup2\n        /* \"#utility.yul\":3003:3036   */\n      tag_128\n      jump\t// in\n    tag_175:\n        /* \"#utility.yul\":2903:3042   */\n      swap3\n      swap2\n      pop\n      pop\n      jump\t// out\n        /* \"#utility.yul\":3048:3170   */\n    tag_130:\n        /* \"#utility.yul\":3121:3145   */\n      tag_177\n        /* \"#utility.yul\":3139:3144   */\n      dup2\n        /* \"#utility.yul\":3121:3145   */\n      tag_119\n      jump\t// in\n    tag_177:\n        /* \"#utility.yul\":3114:3119   */\n      dup2\n        /* \"#utility.yul\":3111:3146   */\n      eq\n        /* \"#utility.yul\":3101:3164   */\n      tag_178\n      jumpi\n        /* \"#utility.yul\":3160:3161   */\n      0x00\n        /* \"#utility.yul\":3157:3158   */\n      dup1\n        /* \"#utility.yul\":3150:3162   */\n      revert\n        /* \"#utility.yul\":3101:3164   */\n    tag_178:\n        /* \"#utility.yul\":3048:3170   */\n      pop\n      jump\t// out\n        /* \"#utility.yul\":3176:3315   */\n    tag_131:\n        /* \"#utility.yul\":3222:3227   */\n      0x00\n        /* \"#utility.yul\":3260:3266   */\n      dup2\n        /* \"#utility.yul\":3247:3267   */\n      calldataload\n        /* \"#utility.yul\":3238:3267   */\n      swap1\n      pop\n        /* \"#utility.yul\":3276:3309   */\n      tag_180\n        /* \"#utility.yul\":3303:3308   */\n      dup2\n        /* \"#utility.yul\":3276:3309   */\n      tag_130\n      jump\t// in\n    tag_180:\n        /* \"#utility.yul\":3176:3315   */\n      swap3\n      swap2\n      pop\n      pop\n      jump\t// out\n        /* \"#utility.yul\":3321:3795   */\n    tag_40:\n        /* \"#utility.yul\":3389:3395   */\n      0x00\n        /* \"#utility.yul\":3397:3403   */\n      dup1\n        /* \"#utility.yul\":3446:3448   */\n      0x40\n        /* \"#utility.yul\":3434:3443   */\n      dup4\n        /* \"#utility.yul\":3425:3432   */\n      dup6\n        /* \"#utility.yul\":3421:3444   */\n      sub\n        /* \"#utility.yul\":3417:3449   */\n      slt\n        /* \"#utility.yul\":3414:3533   */\n      iszero\n      tag_182\n      jumpi\n        /* \"#utility.yul\":3452:3531   */\n      tag_183\n      tag_124\n      jump\t// in\n    tag_183:\n        /* \"#utility.yul\":3414:3533   */\n    tag_182:\n        /* \"#utility.yul\":3572:3573   */\n      0x00\n        /* \"#utility.yul\":3597:3650   */\n      tag_184\n        /* \"#utility.yul\":3642:3649   */\n      dup6\n        /* \"#utility.yul\":3633:3639   */\n      dup3\n        /* \"#utility.yul\":3622:3631   */\n      dup7\n        /* \"#utility.yul\":3618:3640   */\n      add\n        /* \"#utility.yul\":3597:3650   */\n      tag_129\n      jump\t// in\n    tag_184:\n        /* \"#utility.yul\":3587:3650   */\n      swap3\n      pop\n        /* \"#utility.yul\":3543:3660   */\n      pop\n        /* \"#utility.yul\":3699:3701   */\n      0x20\n        /* \"#utility.yul\":3725:3778   */\n      tag_185\n        /* \"#utility.yul\":3770:3777   */\n      dup6\n        /* \"#utility.yul\":3761:3767   */\n      dup3\n        /* \"#utility.yul\":3750:3759   */\n      dup7\n        /* \"#utility.yul\":3746:3768   */\n      add\n        /* \"#utility.yul\":3725:3778   */\n      tag_131\n      jump\t// in\n    tag_185:\n        /* \"#utility.yul\":3715:3778   */\n      swap2\n      pop\n        /* \"#utility.yul\":3670:3788   */\n      pop\n        /* \"#utility.yul\":3321:3795   */\n      swap3\n      pop\n      swap3\n      swap1\n      pop\n      jump\t// out\n        /* \"#utility.yul\":3801:4130   */\n    tag_44:\n        /* \"#utility.yul\":3860:3866   */\n      0x00\n        /* \"#utility.yul\":3909:3911   */\n      0x20\n        /* \"#utility.yul\":3897:3906   */\n      dup3\n        /* \"#utility.yul\":3888:3895   */\n      dup5\n        /* \"#utility.yul\":3884:3907   */\n      sub\n        /* \"#utility.yul\":3880:3912   */\n      slt\n        /* \"#utility.yul\":3877:3996   */\n      iszero\n      tag_187\n      jumpi\n        /* \"#utility.yul\":3915:3994   */\n      tag_188\n      tag_124\n      jump\t// in\n    tag_188:\n        /* \"#utility.yul\":3877:3996   */\n    tag_187:\n        /* \"#utility.yul\":4035:4036   */\n      0x00\n        /* \"#utility.yul\":4060:4113   */\n      tag_189\n        /* \"#utility.yul\":4105:4112   */\n      dup5\n        /* \"#utility.yul\":4096:4102   */\n      dup3\n        /* \"#utility.yul\":4085:4094   */\n      dup6\n        /* \"#utility.yul\":4081:4103   */\n      add\n        /* \"#utility.yul\":4060:4113   */\n      tag_129\n      jump\t// in\n    tag_189:\n        /* \"#utility.yul\":4050:4113   */\n      swap2\n      pop\n        /* \"#utility.yul\":4006:4123   */\n      pop\n        /* \"#utility.yul\":3801:4130   */\n      swap3\n      swap2\n      pop\n      pop\n      jump\t// out\n        /* \"#utility.yul\":4136:4254   */\n    tag_132:\n        /* \"#utility.yul\":4223:4247   */\n      tag_191\n        /* \"#utility.yul\":4241:4246   */\n      dup2\n        /* \"#utility.yul\":4223:4247   */\n      tag_127\n      jump\t// in\n    tag_191:\n        /* \"#utility.yul\":4218:4221   */\n      dup3\n        /* \"#utility.yul\":4211:4248   */\n      mstore\n        /* \"#utility.yul\":4136:4254   */\n      pop\n      pop\n      jump\t// out\n        /* \"#utility.yul\":4260:4482   */\n    tag_61:\n        /* \"#utility.yul\":4353:4357   */\n      0x00\n        /* \"#utility.yul\":4391:4393   */\n      0x20\n        /* \"#utility.yul\":4380:4389   */\n      dup3\n        /* \"#utility.yul\":4376:4394   */\n      add\n        /* \"#utility.yul\":4368:4394   */\n      swap1\n      pop\n        /* \"#utility.yul\":4404:4475   */\n      tag_193\n        /* \"#utility.yul\":4472:4473   */\n      0x00\n        /* \"#utility.yul\":4461:4470   */\n      dup4\n        /* \"#utility.yul\":4457:4474   */\n      add\n        /* \"#utility.yul\":4448:4454   */\n      dup5\n        /* \"#utility.yul\":4404:4475   */\n      tag_132\n      jump\t// in\n    tag_193:\n        /* \"#utility.yul\":4260:4482   */\n      swap3\n      swap2\n      pop\n      pop\n      jump\t// out\n        /* \"#utility.yul\":4488:4668   */\n    tag_133:\n        /* \"#utility.yul\":4536:4613   */\n      0x4e487b7100000000000000000000000000000000000000000000000000000000\n        /* \"#utility.yul\":4533:4534   */\n      0x00\n        /* \"#utility.yul\":4526:4614   */\n      mstore\n        /* \"#utility.yul\":4633:4637   */\n      0x22\n        /* \"#utility.yul\":4630:4631   */\n      0x04\n        /* \"#utility.yul\":4623:4638   */\n      mstore\n        /* \"#utility.yul\":4657:4661   */\n      0x24\n        /* \"#utility.yul\":4654:4655   */\n      0x00\n        /* \"#utility.yul\":4647:4662   */\n      revert\n        /* \"#utility.yul\":4674:4994   */\n    tag_71:\n        /* \"#utility.yul\":4718:4724   */\n      0x00\n        /* \"#utility.yul\":4755:4756   */\n      0x02\n        /* \"#utility.yul\":4749:4753   */\n      dup3\n        /* \"#utility.yul\":4745:4757   */\n      div\n        /* \"#utility.yul\":4735:4757   */\n      swap1\n      pop\n        /* \"#utility.yul\":4802:4803   */\n      0x01\n        /* \"#utility.yul\":4796:4800   */\n      dup3\n        /* \"#utility.yul\":4792:4804   */\n      and\n        /* \"#utility.yul\":4823:4841   */\n      dup1\n        /* \"#utility.yul\":4813:4894   */\n      tag_196\n      jumpi\n        /* \"#utility.yul\":4879:4883   */\n      0x7f\n        /* \"#utility.yul\":4871:4877   */\n      dup3\n        /* \"#utility.yul\":4867:4884   */\n      and\n        /* \"#utility.yul\":4857:4884   */\n      swap2\n      pop\n        /* \"#utility.yul\":4813:4894   */\n    tag_196:\n        /* \"#utility.yul\":4941:4943   */\n      0x20\n        /* \"#utility.yul\":4933:4939   */\n      dup3\n        /* \"#utility.yul\":4930:4944   */\n      lt\n        /* \"#utility.yul\":4910:4928   */\n      dup2\n        /* \"#utility.yul\":4907:4945   */\n      sub\n        /* \"#utility.yul\":4904:4988   */\n      tag_197\n      jumpi\n        /* \"#utility.yul\":4960:4978   */\n      tag_198\n      tag_133\n      jump\t// in\n    tag_198:\n        /* \"#utility.yul\":4904:4988   */\n    tag_197:\n        /* \"#utility.yul\":4725:4994   */\n      pop\n        /* \"#utility.yul\":4674:4994   */\n      swap2\n      swap1\n      pop\n      jump\t// out\n        /* \"#utility.yul\":5000:5162   */\n    tag_134:\n        /* \"#utility.yul\":5140:5154   */\n      0x4e6f7420616c6c6f776564210000000000000000000000000000000000000000\n        /* \"#utility.yul\":5136:5137   */\n      0x00\n        /* \"#utility.yul\":5128:5134   */\n      dup3\n        /* \"#utility.yul\":5124:5138   */\n      add\n        /* \"#utility.yul\":5117:5155   */\n      mstore\n        /* \"#utility.yul\":5000:5162   */\n      pop\n      jump\t// out\n        /* \"#utility.yul\":5168:5534   */\n    tag_135:\n        /* \"#utility.yul\":5310:5313   */\n      0x00\n        /* \"#utility.yul\":5331:5398   */\n      tag_201\n        /* \"#utility.yul\":5395:5397   */\n      0x0c\n        /* \"#utility.yul\":5390:5393   */\n      dup4\n        /* \"#utility.yul\":5331:5398   */\n      tag_115\n      jump\t// in\n    tag_201:\n        /* \"#utility.yul\":5324:5398   */\n      swap2\n      pop\n        /* \"#utility.yul\":5407:5500   */\n      tag_202\n        /* \"#utility.yul\":5496:5499   */\n      dup3\n        /* \"#utility.yul\":5407:5500   */\n      tag_134\n      jump\t// in\n    tag_202:\n        /* \"#utility.yul\":5525:5527   */\n      0x20\n        /* \"#utility.yul\":5520:5523   */\n      dup3\n        /* \"#utility.yul\":5516:5528   */\n      add\n        /* \"#utility.yul\":5509:5528   */\n      swap1\n      pop\n        /* \"#utility.yul\":5168:5534   */\n      swap2\n      swap1\n      pop\n      jump\t// out\n        /* \"#utility.yul\":5540:5959   */\n    tag_87:\n        /* \"#utility.yul\":5706:5710   */\n      0x00\n        /* \"#utility.yul\":5744:5746   */\n      0x20\n        /* \"#utility.yul\":5733:5742   */\n      dup3\n        /* \"#utility.yul\":5729:5747   */\n      add\n        /* \"#utility.yul\":5721:5747   */\n      swap1\n      pop\n        /* \"#utility.yul\":5793:5802   */\n      dup2\n        /* \"#utility.yul\":5787:5791   */\n      dup2\n        /* \"#utility.yul\":5783:5803   */\n      sub\n        /* \"#utility.yul\":5779:5780   */\n      0x00\n        /* \"#utility.yul\":5768:5777   */\n      dup4\n        /* \"#utility.yul\":5764:5781   */\n      add\n        /* \"#utility.yul\":5757:5804   */\n      mstore\n        /* \"#utility.yul\":5821:5952   */\n      tag_204\n        /* \"#utility.yul\":5947:5951   */\n      dup2\n        /* \"#utility.yul\":5821:5952   */\n      tag_135\n      jump\t// in\n    tag_204:\n        /* \"#utility.yul\":5813:5952   */\n      swap1\n      pop\n        /* \"#utility.yul\":5540:5959   */\n      swap2\n      swap1\n      pop\n      jump\t// out\n        /* \"#utility.yul\":5965:6145   */\n    tag_136:\n        /* \"#utility.yul\":6013:6090   */\n      0x4e487b7100000000000000000000000000000000000000000000000000000000\n        /* \"#utility.yul\":6010:6011   */\n      0x00\n        /* \"#utility.yul\":6003:6091   */\n      mstore\n        /* \"#utility.yul\":6110:6114   */\n      0x11\n        /* \"#utility.yul\":6107:6108   */\n      0x04\n        /* \"#utility.yul\":6100:6115   */\n      mstore\n        /* \"#utility.yul\":6134:6138   */\n      0x24\n        /* \"#utility.yul\":6131:6132   */\n      0x00\n        /* \"#utility.yul\":6124:6139   */\n      revert\n        /* \"#utility.yul\":6151:6253   */\n    tag_137:\n        /* \"#utility.yul\":6193:6201   */\n      0x00\n        /* \"#utility.yul\":6240:6245   */\n      dup2\n        /* \"#utility.yul\":6237:6238   */\n      0x01\n        /* \"#utility.yul\":6233:6246   */\n      shr\n        /* \"#utility.yul\":6212:6246   */\n      swap1\n      pop\n        /* \"#utility.yul\":6151:6253   */\n      swap2\n      swap1\n      pop\n      jump\t// out\n        /* \"#utility.yul\":6259:7107   */\n    tag_138:\n        /* \"#utility.yul\":6320:6325   */\n      0x00\n        /* \"#utility.yul\":6327:6331   */\n      dup1\n        /* \"#utility.yul\":6351:6357   */\n      dup3\n        /* \"#utility.yul\":6342:6357   */\n      swap2\n      pop\n        /* \"#utility.yul\":6375:6380   */\n      dup4\n        /* \"#utility.yul\":6366:6380   */\n      swap1\n      pop\n        /* \"#utility.yul\":6389:7101   */\n    tag_208:\n        /* \"#utility.yul\":6410:6411   */\n      0x01\n        /* \"#utility.yul\":6400:6408   */\n      dup6\n        /* \"#utility.yul\":6397:6412   */\n      gt\n        /* \"#utility.yul\":6389:7101   */\n      iszero\n      tag_210\n      jumpi\n        /* \"#utility.yul\":6505:6509   */\n      dup1\n        /* \"#utility.yul\":6500:6503   */\n      dup7\n        /* \"#utility.yul\":6496:6510   */\n      div\n        /* \"#utility.yul\":6490:6494   */\n      dup2\n        /* \"#utility.yul\":6487:6511   */\n      gt\n        /* \"#utility.yul\":6484:6534   */\n      iszero\n      tag_211\n      jumpi\n        /* \"#utility.yul\":6514:6532   */\n      tag_212\n      tag_136\n      jump\t// in\n    tag_212:\n        /* \"#utility.yul\":6484:6534   */\n    tag_211:\n        /* \"#utility.yul\":6564:6565   */\n      0x01\n        /* \"#utility.yul\":6554:6562   */\n      dup6\n        /* \"#utility.yul\":6550:6566   */\n      and\n        /* \"#utility.yul\":6547:6998   */\n      iszero\n      tag_213\n      jumpi\n        /* \"#utility.yul\":6979:6983   */\n      dup1\n        /* \"#utility.yul\":6972:6977   */\n      dup3\n        /* \"#utility.yul\":6968:6984   */\n      mul\n        /* \"#utility.yul\":6959:6984   */\n      swap2\n      pop\n        /* \"#utility.yul\":6547:6998   */\n    tag_213:\n        /* \"#utility.yul\":7029:7033   */\n      dup1\n        /* \"#utility.yul\":7023:7027   */\n      dup2\n        /* \"#utility.yul\":7019:7034   */\n      mul\n        /* \"#utility.yul\":7011:7034   */\n      swap1\n      pop\n        /* \"#utility.yul\":7059:7091   */\n      tag_214\n        /* \"#utility.yul\":7082:7090   */\n      dup6\n        /* \"#utility.yul\":7059:7091   */\n      tag_137\n      jump\t// in\n    tag_214:\n        /* \"#utility.yul\":7047:7091   */\n      swap5\n      pop\n        /* \"#utility.yul\":6389:7101   */\n      jump(tag_208)\n    tag_210:\n        /* \"#utility.yul\":6259:7107   */\n      swap5\n      pop\n      swap5\n      swap3\n      pop\n      pop\n      pop\n      jump\t// out\n        /* \"#utility.yul\":7113:8186   */\n    tag_139:\n        /* \"#utility.yul\":7167:7172   */\n      0x00\n        /* \"#utility.yul\":7358:7366   */\n      dup3\n        /* \"#utility.yul\":7348:7388   */\n      tag_216\n      jumpi\n        /* \"#utility.yul\":7379:7380   */\n      0x01\n        /* \"#utility.yul\":7370:7380   */\n      swap1\n      pop\n        /* \"#utility.yul\":7381:7386   */\n      jump(tag_215)\n        /* \"#utility.yul\":7348:7388   */\n    tag_216:\n        /* \"#utility.yul\":7407:7411   */\n      dup2\n        /* \"#utility.yul\":7397:7433   */\n      tag_217\n      jumpi\n        /* \"#utility.yul\":7424:7425   */\n      0x00\n        /* \"#utility.yul\":7415:7425   */\n      swap1\n      pop\n        /* \"#utility.yul\":7426:7431   */\n      jump(tag_215)\n        /* \"#utility.yul\":7397:7433   */\n    tag_217:\n        /* \"#utility.yul\":7493:7497   */\n      dup2\n        /* \"#utility.yul\":7541:7542   */\n      0x01\n        /* \"#utility.yul\":7536:7563   */\n      dup2\n      eq\n      tag_219\n      jumpi\n        /* \"#utility.yul\":7577:7578   */\n      0x02\n        /* \"#utility.yul\":7572:7763   */\n      dup2\n      eq\n      tag_220\n      jumpi\n        /* \"#utility.yul\":7486:7763   */\n      jump(tag_218)\n        /* \"#utility.yul\":7536:7563   */\n    tag_219:\n        /* \"#utility.yul\":7554:7555   */\n      0x01\n        /* \"#utility.yul\":7545:7555   */\n      swap2\n      pop\n        /* \"#utility.yul\":7556:7561   */\n      pop\n      jump(tag_215)\n        /* \"#utility.yul\":7572:7763   */\n    tag_220:\n        /* \"#utility.yul\":7617:7620   */\n      0xff\n        /* \"#utility.yul\":7607:7615   */\n      dup5\n        /* \"#utility.yul\":7604:7621   */\n      gt\n        /* \"#utility.yul\":7601:7644   */\n      iszero\n      tag_221\n      jumpi\n        /* \"#utility.yul\":7624:7642   */\n      tag_222\n      tag_136\n      jump\t// in\n    tag_222:\n        /* \"#utility.yul\":7601:7644   */\n    tag_221:\n        /* \"#utility.yul\":7673:7681   */\n      dup4\n        /* \"#utility.yul\":7670:7671   */\n      0x02\n        /* \"#utility.yul\":7666:7682   */\n      exp\n        /* \"#utility.yul\":7657:7682   */\n      swap2\n      pop\n        /* \"#utility.yul\":7708:7711   */\n      dup5\n        /* \"#utility.yul\":7701:7706   */\n      dup3\n        /* \"#utility.yul\":7698:7712   */\n      gt\n        /* \"#utility.yul\":7695:7735   */\n      iszero\n      tag_223\n      jumpi\n        /* \"#utility.yul\":7715:7733   */\n      tag_224\n      tag_136\n      jump\t// in\n    tag_224:\n        /* \"#utility.yul\":7695:7735   */\n    tag_223:\n        /* \"#utility.yul\":7748:7753   */\n      pop\n      jump(tag_215)\n        /* \"#utility.yul\":7486:7763   */\n    tag_218:\n      pop\n        /* \"#utility.yul\":7872:7874   */\n      0x20\n        /* \"#utility.yul\":7862:7870   */\n      dup4\n        /* \"#utility.yul\":7859:7875   */\n      lt\n        /* \"#utility.yul\":7853:7856   */\n      0x0133\n        /* \"#utility.yul\":7847:7851   */\n      dup4\n        /* \"#utility.yul\":7844:7857   */\n      lt\n        /* \"#utility.yul\":7840:7876   */\n      and\n        /* \"#utility.yul\":7822:7824   */\n      0x4e\n        /* \"#utility.yul\":7812:7820   */\n      dup5\n        /* \"#utility.yul\":7809:7825   */\n      lt\n        /* \"#utility.yul\":7804:7806   */\n      0x0b\n        /* \"#utility.yul\":7798:7802   */\n      dup5\n        /* \"#utility.yul\":7795:7807   */\n      lt\n        /* \"#utility.yul\":7791:7826   */\n      and\n        /* \"#utility.yul\":7775:7886   */\n      or\n        /* \"#utility.yul\":7772:8018   */\n      iszero\n      tag_225\n      jumpi\n        /* \"#utility.yul\":7928:7936   */\n      dup3\n        /* \"#utility.yul\":7922:7926   */\n      dup3\n        /* \"#utility.yul\":7918:7937   */\n      exp\n        /* \"#utility.yul\":7909:7937   */\n      swap1\n      pop\n        /* \"#utility.yul\":7963:7966   */\n      dup4\n        /* \"#utility.yul\":7956:7961   */\n      dup2\n        /* \"#utility.yul\":7953:7967   */\n      gt\n        /* \"#utility.yul\":7950:7990   */\n      iszero\n      tag_226\n      jumpi\n        /* \"#utility.yul\":7970:7988   */\n      tag_227\n      tag_136\n      jump\t// in\n    tag_227:\n        /* \"#utility.yul\":7950:7990   */\n    tag_226:\n        /* \"#utility.yul\":8003:8008   */\n      jump(tag_215)\n        /* \"#utility.yul\":7772:8018   */\n    tag_225:\n        /* \"#utility.yul\":8043:8085   */\n      tag_228\n        /* \"#utility.yul\":8081:8084   */\n      dup5\n        /* \"#utility.yul\":8071:8079   */\n      dup5\n        /* \"#utility.yul\":8065:8069   */\n      dup5\n        /* \"#utility.yul\":8062:8063   */\n      0x01\n        /* \"#utility.yul\":8043:8085   */\n      tag_138\n      jump\t// in\n    tag_228:\n        /* \"#utility.yul\":8028:8085   */\n      swap3\n      pop\n      swap1\n      pop\n        /* \"#utility.yul\":8117:8121   */\n      dup2\n        /* \"#utility.yul\":8112:8115   */\n      dup5\n        /* \"#utility.yul\":8108:8122   */\n      div\n        /* \"#utility.yul\":8101:8106   */\n      dup2\n        /* \"#utility.yul\":8098:8123   */\n      gt\n        /* \"#utility.yul\":8095:8146   */\n      iszero\n      tag_229\n      jumpi\n        /* \"#utility.yul\":8126:8144   */\n      tag_230\n      tag_136\n      jump\t// in\n    tag_230:\n        /* \"#utility.yul\":8095:8146   */\n    tag_229:\n        /* \"#utility.yul\":8175:8179   */\n      dup2\n        /* \"#utility.yul\":8168:8173   */\n      dup2\n        /* \"#utility.yul\":8164:8180   */\n      mul\n        /* \"#utility.yul\":8155:8180   */\n      swap1\n      pop\n        /* \"#utility.yul\":7113:8186   */\n    tag_215:\n      swap4\n      swap3\n      pop\n      pop\n      pop\n      jump\t// out\n        /* \"#utility.yul\":8192:8477   */\n    tag_89:\n        /* \"#utility.yul\":8252:8257   */\n      0x00\n        /* \"#utility.yul\":8276:8299   */\n      tag_232\n        /* \"#utility.yul\":8294:8298   */\n      dup3\n        /* \"#utility.yul\":8276:8299   */\n      tag_119\n      jump\t// in\n    tag_232:\n        /* \"#utility.yul\":8268:8299   */\n      swap2\n      pop\n        /* \"#utility.yul\":8320:8347   */\n      tag_233\n        /* \"#utility.yul\":8338:8346   */\n      dup4\n        /* \"#utility.yul\":8320:8347   */\n      tag_119\n      jump\t// in\n    tag_233:\n        /* \"#utility.yul\":8308:8347   */\n      swap3\n      pop\n        /* \"#utility.yul\":8366:8470   */\n      tag_234\n        /* \"#utility.yul\":8403:8469   */\n      0xffffffffffffffffffffffffffffffffffffffffffffffffffffffffffffffff\n        /* \"#utility.yul\":8393:8401   */\n      dup5\n        /* \"#utility.yul\":8387:8391   */\n      dup5\n        /* \"#utility.yul\":8366:8470   */\n      tag_139\n      jump\t// in\n    tag_234:\n        /* \"#utility.yul\":8357:8470   */\n      swap1\n      pop\n        /* \"#utility.yul\":8192:8477   */\n      swap3\n      swap2\n      pop\n      pop\n      jump\t// out\n        /* \"#utility.yul\":8483:8893   */\n    tag_91:\n        /* \"#utility.yul\":8523:8530   */\n      0x00\n        /* \"#utility.yul\":8546:8566   */\n      tag_236\n        /* \"#utility.yul\":8564:8565   */\n      dup3\n        /* \"#utility.yul\":8546:8566   */\n      tag_119\n      jump\t// in\n    tag_236:\n        /* \"#utility.yul\":8541:8566   */\n      swap2\n      pop\n        /* \"#utility.yul\":8580:8600   */\n      tag_237\n        /* \"#utility.yul\":8598:8599   */\n      dup4\n        /* \"#utility.yul\":8580:8600   */\n      tag_119\n      jump\t// in\n    tag_237:\n        /* \"#utility.yul\":8575:8600   */\n      swap3\n      pop\n        /* \"#utility.yul\":8635:8636   */\n      dup3\n        /* \"#utility.yul\":8632:8633   */\n      dup3\n        /* \"#utility.yul\":8628:8637   */\n      mul\n        /* \"#utility.yul\":8657:8687   */\n      tag_238\n        /* \"#utility.yul\":8675:8686   */\n      dup2\n        /* \"#utility.yul\":8657:8687   */\n      tag_119\n      jump\t// in\n    tag_238:\n        /* \"#utility.yul\":8646:8687   */\n      swap2\n      pop\n        /* \"#utility.yul\":8836:8837   */\n      dup3\n        /* \"#utility.yul\":8827:8834   */\n      dup3\n        /* \"#utility.yul\":8823:8838   */\n      div\n        /* \"#utility.yul\":8820:8821   */\n      dup5\n        /* \"#utility.yul\":8817:8839   */\n      eq\n        /* \"#utility.yul\":8797:8798   */\n      dup4\n        /* \"#utility.yul\":8790:8799   */\n      iszero\n        /* \"#utility.yul\":8770:8853   */\n      or\n        /* \"#utility.yul\":8747:8886   */\n      tag_239\n      jumpi\n        /* \"#utility.yul\":8866:8884   */\n      tag_240\n      tag_136\n      jump\t// in\n    tag_240:\n        /* \"#utility.yul\":8747:8886   */\n    tag_239:\n        /* \"#utility.yul\":8531:8893   */\n      pop\n        /* \"#utility.yul\":8483:8893   */\n      swap3\n      swap2\n      pop\n      pop\n      jump\t// out\n        /* \"#utility.yul\":8899:9090   */\n    tag_112:\n        /* \"#utility.yul\":8939:8942   */\n      0x00\n        /* \"#utility.yul\":8958:8978   */\n      tag_242\n        /* \"#utility.yul\":8976:8977   */\n      dup3\n        /* \"#utility.yul\":8958:8978   */\n      tag_119\n      jump\t// in\n    tag_242:\n        /* \"#utility.yul\":8953:8978   */\n      swap2\n      pop\n        /* \"#utility.yul\":8992:9012   */\n      tag_243\n        /* \"#utility.yul\":9010:9011   */\n      dup4\n        /* \"#utility.yul\":8992:9012   */\n      tag_119\n      jump\t// in\n    tag_243:\n        /* \"#utility.yul\":8987:9012   */\n      swap3\n      pop\n        /* \"#utility.yul\":9035:9036   */\n      dup3\n        /* \"#utility.yul\":9032:9033   */\n      dup3\n        /* \"#utility.yul\":9028:9037   */\n      add\n        /* \"#utility.yul\":9021:9037   */\n      swap1\n      pop\n        /* \"#utility.yul\":9056:9059   */\n      dup1\n        /* \"#utility.yul\":9053:9054   */\n      dup3\n        /* \"#utility.yul\":9050:9060   */\n      gt\n        /* \"#utility.yul\":9047:9083   */\n      iszero\n      tag_244\n      jumpi\n        /* \"#utility.yul\":9063:9081   */\n      tag_245\n      tag_136\n      jump\t// in\n    tag_245:\n        /* \"#utility.yul\":9047:9083   */\n    tag_244:\n        /* \"#utility.yul\":8899:9090   */\n      swap3\n      swap2\n      pop\n      pop\n      jump\t// out\n\n    auxdata: 0xa26469706673582212201caa39bc1a8c81d286eac430ea4599f2cfcf1f0063b35fd3f85036bfcf8fb12864736f6c63430008130033\n}\n",
				"bytecode": {
					"linkReferences": {},
					"object": "60806040523480156200001157600080fd5b506040518060400160405280600681526020017f56697669636100000000000000000000000000000000000000000000000000008152506000908162000058919062000435565b506040518060400160405280600281526020017f5641000000000000000000000000000000000000000000000000000000000000815250600190816200009f919062000435565b506012600260006101000a81548160ff021916908360ff16021790555033600460006101000a81548173ffffffffffffffffffffffffffffffffffffffff021916908373ffffffffffffffffffffffffffffffffffffffff1602179055506200013e33600260009054906101000a900460ff1660ff16600a6200012391906200069f565b6103e8620001329190620006f0565b6200014460201b60201c565b62000776565b80600560008473ffffffffffffffffffffffffffffffffffffffff1673ffffffffffffffffffffffffffffffffffffffff16815260200190815260200160002060008282546200019591906200073b565b925050819055508060036000828254620001b091906200073b565b925050819055505050565b600081519050919050565b7f4e487b7100000000000000000000000000000000000000000000000000000000600052604160045260246000fd5b7f4e487b7100000000000000000000000000000000000000000000000000000000600052602260045260246000fd5b600060028204905060018216806200023d57607f821691505b602082108103620002535762000252620001f5565b5b50919050565b60008190508160005260206000209050919050565b60006020601f8301049050919050565b600082821b905092915050565b600060088302620002bd7fffffffffffffffffffffffffffffffffffffffffffffffffffffffffffffffff826200027e565b620002c986836200027e565b95508019841693508086168417925050509392505050565b6000819050919050565b6000819050919050565b600062000316620003106200030a84620002e1565b620002eb565b620002e1565b9050919050565b6000819050919050565b6200033283620002f5565b6200034a62000341826200031d565b8484546200028b565b825550505050565b600090565b6200036162000352565b6200036e81848462000327565b505050565b5b8181101562000396576200038a60008262000357565b60018101905062000374565b5050565b601f821115620003e557620003af8162000259565b620003ba846200026e565b81016020851015620003ca578190505b620003e2620003d9856200026e565b83018262000373565b50505b505050565b600082821c905092915050565b60006200040a60001984600802620003ea565b1980831691505092915050565b6000620004258383620003f7565b9150826002028217905092915050565b6200044082620001bb565b67ffffffffffffffff8111156200045c576200045b620001c6565b5b62000468825462000224565b620004758282856200039a565b600060209050601f831160018114620004ad576000841562000498578287015190505b620004a4858262000417565b86555062000514565b601f198416620004bd8662000259565b60005b82811015620004e757848901518255600182019150602085019450602081019050620004c0565b8683101562000507578489015162000503601f891682620003f7565b8355505b6001600288020188555050505b505050505050565b7f4e487b7100000000000000000000000000000000000000000000000000000000600052601160045260246000fd5b60008160011c9050919050565b6000808291508390505b6001851115620005aa578086048111156200058257620005816200051c565b5b6001851615620005925780820291505b8081029050620005a2856200054b565b945062000562565b94509492505050565b600082620005c5576001905062000698565b81620005d5576000905062000698565b8160018114620005ee5760028114620005f9576200062f565b600191505062000698565b60ff8411156200060e576200060d6200051c565b5b8360020a9150848211156200062857620006276200051c565b5b5062000698565b5060208310610133831016604e8410600b8410161715620006695782820a9050838111156200066357620006626200051c565b5b62000698565b62000678848484600162000558565b925090508184048111156200069257620006916200051c565b5b81810290505b9392505050565b6000620006ac82620002e1565b9150620006b983620002e1565b9250620006e87fffffffffffffffffffffffffffffffffffffffffffffffffffffffffffffffff8484620005b3565b905092915050565b6000620006fd82620002e1565b91506200070a83620002e1565b92508282026200071a81620002e1565b915082820484148315176200073457620007336200051c565b5b5092915050565b60006200074882620002e1565b91506200075583620002e1565b925082820190508082111562000770576200076f6200051c565b5b92915050565b610c3980620007866000396000f3fe608060405234801561001057600080fd5b50600436106100f55760003560e01c806370a08231116100975780638da5cb5b116100665780638da5cb5b1461022a57806395d89b4114610248578063de242ff414610266578063f0141d8414610270576100f5565b806370a08231146101c8578063811c34d3146101f8578063862b092b146102025780638a4068dd14610220576100f5565b806318160ddd116100d357806318160ddd14610140578063313ce5671461015e57806340c10f191461017c5780636ebcf60714610198576100f5565b806306fdde03146100fa57806312424e3f146101185780631507040114610122575b600080fd5b61010261028e565b60405161010f9190610761565b60405180910390f35b61012061031c565b005b61012a61031e565b6040516101379190610761565b60405180910390f35b6101486103b0565b604051610155919061079c565b60405180910390f35b6101666103ba565b60405161017391906107d3565b60405180910390f35b6101966004803603810190610191919061087d565b6103cd565b005b6101b260048036038101906101ad91906108bd565b61049a565b6040516101bf919061079c565b60405180910390f35b6101e260048036038101906101dd91906108bd565b6104b2565b6040516101ef919061079c565b60405180910390f35b6102006104fb565b005b61020a6104fd565b6040516102179190610761565b60405180910390f35b61022861058f565b005b610232610591565b60405161023f91906108f9565b60405180910390f35b6102506105b7565b60405161025d9190610761565b60405180910390f35b61026e610645565b005b610278610647565b60405161028591906107d3565b60405180910390f35b6000805461029b90610943565b80601f01602080910402602001604051908101604052809291908181526020018280546102c790610943565b80156103145780601f106102e957610100808354040283529160200191610314565b820191906000526020600020905b8154815290600101906020018083116102f757829003601f168201915b505050505081565b565b60606001805461032d90610943565b80601f016020809104026020016040519081016040528092919081815260200182805461035990610943565b80156103a65780601f1061037b576101008083540402835291602001916103a6565b820191906000526020600020905b81548152906001019060200180831161038957829003601f168201915b5050505050905090565b6000600354905090565b600260009054906101000a900460ff1681565b600460009054906101000a900473ffffffffffffffffffffffffffffffffffffffff1673ffffffffffffffffffffffffffffffffffffffff163373ffffffffffffffffffffffffffffffffffffffff161461045d576040517f08c379a0000000000000000000000000000000000000000000000000000000008152600401610454906109c0565b60405180910390fd5b6000600260009054906101000a900460ff1660ff16600a61047e9190610b42565b826104899190610b8d565b9050610495838261065e565b505050565b60056020528060005260406000206000915090505481565b6000600560008373ffffffffffffffffffffffffffffffffffffffff1673ffffffffffffffffffffffffffffffffffffffff168152602001908152602001600020549050919050565b565b60606000805461050c90610943565b80601f016020809104026020016040519081016040528092919081815260200182805461053890610943565b80156105855780601f1061055a57610100808354040283529160200191610585565b820191906000526020600020905b81548152906001019060200180831161056857829003601f168201915b5050505050905090565b565b600460009054906101000a900473ffffffffffffffffffffffffffffffffffffffff1681565b600180546105c490610943565b80601f01602080910402602001604051908101604052809291908181526020018280546105f090610943565b801561063d5780601f106106125761010080835404028352916020019161063d565b820191906000526020600020905b81548152906001019060200180831161062057829003601f168201915b505050505081565b565b6000600260009054906101000a900460ff16905090565b80600560008473ffffffffffffffffffffffffffffffffffffffff1673ffffffffffffffffffffffffffffffffffffffff16815260200190815260200160002060008282546106ad9190610bcf565b9250508190555080600360008282546106c69190610bcf565b925050819055505050565b600081519050919050565b600082825260208201905092915050565b60005b8381101561070b5780820151818401526020810190506106f0565b60008484015250505050565b6000601f19601f8301169050919050565b6000610733826106d1565b61073d81856106dc565b935061074d8185602086016106ed565b61075681610717565b840191505092915050565b6000602082019050818103600083015261077b8184610728565b905092915050565b6000819050919050565b61079681610783565b82525050565b60006020820190506107b1600083018461078d565b92915050565b600060ff82169050919050565b6107cd816107b7565b82525050565b60006020820190506107e860008301846107c4565b92915050565b600080fd5b600073ffffffffffffffffffffffffffffffffffffffff82169050919050565b600061081e826107f3565b9050919050565b61082e81610813565b811461083957600080fd5b50565b60008135905061084b81610825565b92915050565b61085a81610783565b811461086557600080fd5b50565b60008135905061087781610851565b92915050565b60008060408385031215610894576108936107ee565b5b60006108a28582860161083c565b92505060206108b385828601610868565b9150509250929050565b6000602082840312156108d3576108d26107ee565b5b60006108e18482850161083c565b91505092915050565b6108f381610813565b82525050565b600060208201905061090e60008301846108ea565b92915050565b7f4e487b7100000000000000000000000000000000000000000000000000000000600052602260045260246000fd5b6000600282049050600182168061095b57607f821691505b60208210810361096e5761096d610914565b5b50919050565b7f4e6f7420616c6c6f776564210000000000000000000000000000000000000000600082015250565b60006109aa600c836106dc565b91506109b582610974565b602082019050919050565b600060208201905081810360008301526109d98161099d565b9050919050565b7f4e487b7100000000000000000000000000000000000000000000000000000000600052601160045260246000fd5b60008160011c9050919050565b6000808291508390505b6001851115610a6657808604811115610a4257610a416109e0565b5b6001851615610a515780820291505b8081029050610a5f85610a0f565b9450610a26565b94509492505050565b600082610a7f5760019050610b3b565b81610a8d5760009050610b3b565b8160018114610aa35760028114610aad57610adc565b6001915050610b3b565b60ff841115610abf57610abe6109e0565b5b8360020a915084821115610ad657610ad56109e0565b5b50610b3b565b5060208310610133831016604e8410600b8410161715610b115782820a905083811115610b0c57610b0b6109e0565b5b610b3b565b610b1e8484846001610a1c565b92509050818404811115610b3557610b346109e0565b5b81810290505b9392505050565b6000610b4d82610783565b9150610b5883610783565b9250610b857fffffffffffffffffffffffffffffffffffffffffffffffffffffffffffffffff8484610a6f565b905092915050565b6000610b9882610783565b9150610ba383610783565b9250828202610bb181610783565b91508282048414831517610bc857610bc76109e0565b5b5092915050565b6000610bda82610783565b9150610be583610783565b9250828201905080821115610bfd57610bfc6109e0565b5b9291505056fea26469706673582212201caa39bc1a8c81d286eac430ea4599f2cfcf1f0063b35fd3f85036bfcf8fb12864736f6c63430008130033",
					"opcodes": "PUSH1 0x80 PUSH1 0x40 MSTORE CALLVALUE DUP1 ISZERO PUSH3 0x11 JUMPI PUSH1 0x0 DUP1 REVERT JUMPDEST POP PUSH1 0x40 MLOAD DUP1 PUSH1 0x40 ADD PUSH1 0x40 MSTORE DUP1 PUSH1 0x6 DUP2 MSTORE PUSH1 0x20 ADD PUSH32 0x5669766963610000000000000000000000000000000000000000000000000000 DUP2 MSTORE POP PUSH1 0x0 SWAP1 DUP2 PUSH3 0x58 SWAP2 SWAP1 PUSH3 0x435 JUMP JUMPDEST POP PUSH1 0x40 MLOAD DUP1 PUSH1 0x40 ADD PUSH1 0x40 MSTORE DUP1 PUSH1 0x2 DUP2 MSTORE PUSH1 0x20 ADD PUSH32 0x5641000000000000000000000000000000000000000000000000000000000000 DUP2 MSTORE POP PUSH1 0x1 SWAP1 DUP2 PUSH3 0x9F SWAP2 SWAP1 PUSH3 0x435 JUMP JUMPDEST POP PUSH1 0x12 PUSH1 0x2 PUSH1 0x0 PUSH2 0x100 EXP DUP2 SLOAD DUP2 PUSH1 0xFF MUL NOT AND SWAP1 DUP4 PUSH1 0xFF AND MUL OR SWAP1 SSTORE POP CALLER PUSH1 0x4 PUSH1 0x0 PUSH2 0x100 EXP DUP2 SLOAD DUP2 PUSH20 0xFFFFFFFFFFFFFFFFFFFFFFFFFFFFFFFFFFFFFFFF MUL NOT AND SWAP1 DUP4 PUSH20 0xFFFFFFFFFFFFFFFFFFFFFFFFFFFFFFFFFFFFFFFF AND MUL OR SWAP1 SSTORE POP PUSH3 0x13E CALLER PUSH1 0x2 PUSH1 0x0 SWAP1 SLOAD SWAP1 PUSH2 0x100 EXP SWAP1 DIV PUSH1 0xFF AND PUSH1 0xFF AND PUSH1 0xA PUSH3 0x123 SWAP2 SWAP1 PUSH3 0x69F JUMP JUMPDEST PUSH2 0x3E8 PUSH3 0x132 SWAP2 SWAP1 PUSH3 0x6F0 JUMP JUMPDEST PUSH3 0x144 PUSH1 0x20 SHL PUSH1 0x20 SHR JUMP JUMPDEST PUSH3 0x776 JUMP JUMPDEST DUP1 PUSH1 0x5 PUSH1 0x0 DUP5 PUSH20 0xFFFFFFFFFFFFFFFFFFFFFFFFFFFFFFFFFFFFFFFF AND PUSH20 0xFFFFFFFFFFFFFFFFFFFFFFFFFFFFFFFFFFFFFFFF AND DUP2 MSTORE PUSH1 0x20 ADD SWAP1 DUP2 MSTORE PUSH1 0x20 ADD PUSH1 0x0 KECCAK256 PUSH1 0x0 DUP3 DUP3 SLOAD PUSH3 0x195 SWAP2 SWAP1 PUSH3 0x73B JUMP JUMPDEST SWAP3 POP POP DUP2 SWAP1 SSTORE POP DUP1 PUSH1 0x3 PUSH1 0x0 DUP3 DUP3 SLOAD PUSH3 0x1B0 SWAP2 SWAP1 PUSH3 0x73B JUMP JUMPDEST SWAP3 POP POP DUP2 SWAP1 SSTORE POP POP POP JUMP JUMPDEST PUSH1 0x0 DUP2 MLOAD SWAP1 POP SWAP2 SWAP1 POP JUMP JUMPDEST PUSH32 0x4E487B7100000000000000000000000000000000000000000000000000000000 PUSH1 0x0 MSTORE PUSH1 0x41 PUSH1 0x4 MSTORE PUSH1 0x24 PUSH1 0x0 REVERT JUMPDEST PUSH32 0x4E487B7100000000000000000000000000000000000000000000000000000000 PUSH1 0x0 MSTORE PUSH1 0x22 PUSH1 0x4 MSTORE PUSH1 0x24 PUSH1 0x0 REVERT JUMPDEST PUSH1 0x0 PUSH1 0x2 DUP3 DIV SWAP1 POP PUSH1 0x1 DUP3 AND DUP1 PUSH3 0x23D JUMPI PUSH1 0x7F DUP3 AND SWAP2 POP JUMPDEST PUSH1 0x20 DUP3 LT DUP2 SUB PUSH3 0x253 JUMPI PUSH3 0x252 PUSH3 0x1F5 JUMP JUMPDEST JUMPDEST POP SWAP2 SWAP1 POP JUMP JUMPDEST PUSH1 0x0 DUP2 SWAP1 POP DUP2 PUSH1 0x0 MSTORE PUSH1 0x20 PUSH1 0x0 KECCAK256 SWAP1 POP SWAP2 SWAP1 POP JUMP JUMPDEST PUSH1 0x0 PUSH1 0x20 PUSH1 0x1F DUP4 ADD DIV SWAP1 POP SWAP2 SWAP1 POP JUMP JUMPDEST PUSH1 0x0 DUP3 DUP3 SHL SWAP1 POP SWAP3 SWAP2 POP POP JUMP JUMPDEST PUSH1 0x0 PUSH1 0x8 DUP4 MUL PUSH3 0x2BD PUSH32 0xFFFFFFFFFFFFFFFFFFFFFFFFFFFFFFFFFFFFFFFFFFFFFFFFFFFFFFFFFFFFFFFF DUP3 PUSH3 0x27E JUMP JUMPDEST PUSH3 0x2C9 DUP7 DUP4 PUSH3 0x27E JUMP JUMPDEST SWAP6 POP DUP1 NOT DUP5 AND SWAP4 POP DUP1 DUP7 AND DUP5 OR SWAP3 POP POP POP SWAP4 SWAP3 POP POP POP JUMP JUMPDEST PUSH1 0x0 DUP2 SWAP1 POP SWAP2 SWAP1 POP JUMP JUMPDEST PUSH1 0x0 DUP2 SWAP1 POP SWAP2 SWAP1 POP JUMP JUMPDEST PUSH1 0x0 PUSH3 0x316 PUSH3 0x310 PUSH3 0x30A DUP5 PUSH3 0x2E1 JUMP JUMPDEST PUSH3 0x2EB JUMP JUMPDEST PUSH3 0x2E1 JUMP JUMPDEST SWAP1 POP SWAP2 SWAP1 POP JUMP JUMPDEST PUSH1 0x0 DUP2 SWAP1 POP SWAP2 SWAP1 POP JUMP JUMPDEST PUSH3 0x332 DUP4 PUSH3 0x2F5 JUMP JUMPDEST PUSH3 0x34A PUSH3 0x341 DUP3 PUSH3 0x31D JUMP JUMPDEST DUP5 DUP5 SLOAD PUSH3 0x28B JUMP JUMPDEST DUP3 SSTORE POP POP POP POP JUMP JUMPDEST PUSH1 0x0 SWAP1 JUMP JUMPDEST PUSH3 0x361 PUSH3 0x352 JUMP JUMPDEST PUSH3 0x36E DUP2 DUP5 DUP5 PUSH3 0x327 JUMP JUMPDEST POP POP POP JUMP JUMPDEST JUMPDEST DUP2 DUP2 LT ISZERO PUSH3 0x396 JUMPI PUSH3 0x38A PUSH1 0x0 DUP3 PUSH3 0x357 JUMP JUMPDEST PUSH1 0x1 DUP2 ADD SWAP1 POP PUSH3 0x374 JUMP JUMPDEST POP POP JUMP JUMPDEST PUSH1 0x1F DUP3 GT ISZERO PUSH3 0x3E5 JUMPI PUSH3 0x3AF DUP2 PUSH3 0x259 JUMP JUMPDEST PUSH3 0x3BA DUP5 PUSH3 0x26E JUMP JUMPDEST DUP2 ADD PUSH1 0x20 DUP6 LT ISZERO PUSH3 0x3CA JUMPI DUP2 SWAP1 POP JUMPDEST PUSH3 0x3E2 PUSH3 0x3D9 DUP6 PUSH3 0x26E JUMP JUMPDEST DUP4 ADD DUP3 PUSH3 0x373 JUMP JUMPDEST POP POP JUMPDEST POP POP POP JUMP JUMPDEST PUSH1 0x0 DUP3 DUP3 SHR SWAP1 POP SWAP3 SWAP2 POP POP JUMP JUMPDEST PUSH1 0x0 PUSH3 0x40A PUSH1 0x0 NOT DUP5 PUSH1 0x8 MUL PUSH3 0x3EA JUMP JUMPDEST NOT DUP1 DUP4 AND SWAP2 POP POP SWAP3 SWAP2 POP POP JUMP JUMPDEST PUSH1 0x0 PUSH3 0x425 DUP4 DUP4 PUSH3 0x3F7 JUMP JUMPDEST SWAP2 POP DUP3 PUSH1 0x2 MUL DUP3 OR SWAP1 POP SWAP3 SWAP2 POP POP JUMP JUMPDEST PUSH3 0x440 DUP3 PUSH3 0x1BB JUMP JUMPDEST PUSH8 0xFFFFFFFFFFFFFFFF DUP2 GT ISZERO PUSH3 0x45C JUMPI PUSH3 0x45B PUSH3 0x1C6 JUMP JUMPDEST JUMPDEST PUSH3 0x468 DUP3 SLOAD PUSH3 0x224 JUMP JUMPDEST PUSH3 0x475 DUP3 DUP3 DUP6 PUSH3 0x39A JUMP JUMPDEST PUSH1 0x0 PUSH1 0x20 SWAP1 POP PUSH1 0x1F DUP4 GT PUSH1 0x1 DUP2 EQ PUSH3 0x4AD JUMPI PUSH1 0x0 DUP5 ISZERO PUSH3 0x498 JUMPI DUP3 DUP8 ADD MLOAD SWAP1 POP JUMPDEST PUSH3 0x4A4 DUP6 DUP3 PUSH3 0x417 JUMP JUMPDEST DUP7 SSTORE POP PUSH3 0x514 JUMP JUMPDEST PUSH1 0x1F NOT DUP5 AND PUSH3 0x4BD DUP7 PUSH3 0x259 JUMP JUMPDEST PUSH1 0x0 JUMPDEST DUP3 DUP2 LT ISZERO PUSH3 0x4E7 JUMPI DUP5 DUP10 ADD MLOAD DUP3 SSTORE PUSH1 0x1 DUP3 ADD SWAP2 POP PUSH1 0x20 DUP6 ADD SWAP5 POP PUSH1 0x20 DUP2 ADD SWAP1 POP PUSH3 0x4C0 JUMP JUMPDEST DUP7 DUP4 LT ISZERO PUSH3 0x507 JUMPI DUP5 DUP10 ADD MLOAD PUSH3 0x503 PUSH1 0x1F DUP10 AND DUP3 PUSH3 0x3F7 JUMP JUMPDEST DUP4 SSTORE POP JUMPDEST PUSH1 0x1 PUSH1 0x2 DUP9 MUL ADD DUP9 SSTORE POP POP POP JUMPDEST POP POP POP POP POP POP JUMP JUMPDEST PUSH32 0x4E487B7100000000000000000000000000000000000000000000000000000000 PUSH1 0x0 MSTORE PUSH1 0x11 PUSH1 0x4 MSTORE PUSH1 0x24 PUSH1 0x0 REVERT JUMPDEST PUSH1 0x0 DUP2 PUSH1 0x1 SHR SWAP1 POP SWAP2 SWAP1 POP JUMP JUMPDEST PUSH1 0x0 DUP1 DUP3 SWAP2 POP DUP4 SWAP1 POP JUMPDEST PUSH1 0x1 DUP6 GT ISZERO PUSH3 0x5AA JUMPI DUP1 DUP7 DIV DUP2 GT ISZERO PUSH3 0x582 JUMPI PUSH3 0x581 PUSH3 0x51C JUMP JUMPDEST JUMPDEST PUSH1 0x1 DUP6 AND ISZERO PUSH3 0x592 JUMPI DUP1 DUP3 MUL SWAP2 POP JUMPDEST DUP1 DUP2 MUL SWAP1 POP PUSH3 0x5A2 DUP6 PUSH3 0x54B JUMP JUMPDEST SWAP5 POP PUSH3 0x562 JUMP JUMPDEST SWAP5 POP SWAP5 SWAP3 POP POP POP JUMP JUMPDEST PUSH1 0x0 DUP3 PUSH3 0x5C5 JUMPI PUSH1 0x1 SWAP1 POP PUSH3 0x698 JUMP JUMPDEST DUP2 PUSH3 0x5D5 JUMPI PUSH1 0x0 SWAP1 POP PUSH3 0x698 JUMP JUMPDEST DUP2 PUSH1 0x1 DUP2 EQ PUSH3 0x5EE JUMPI PUSH1 0x2 DUP2 EQ PUSH3 0x5F9 JUMPI PUSH3 0x62F JUMP JUMPDEST PUSH1 0x1 SWAP2 POP POP PUSH3 0x698 JUMP JUMPDEST PUSH1 0xFF DUP5 GT ISZERO PUSH3 0x60E JUMPI PUSH3 0x60D PUSH3 0x51C JUMP JUMPDEST JUMPDEST DUP4 PUSH1 0x2 EXP SWAP2 POP DUP5 DUP3 GT ISZERO PUSH3 0x628 JUMPI PUSH3 0x627 PUSH3 0x51C JUMP JUMPDEST JUMPDEST POP PUSH3 0x698 JUMP JUMPDEST POP PUSH1 0x20 DUP4 LT PUSH2 0x133 DUP4 LT AND PUSH1 0x4E DUP5 LT PUSH1 0xB DUP5 LT AND OR ISZERO PUSH3 0x669 JUMPI DUP3 DUP3 EXP SWAP1 POP DUP4 DUP2 GT ISZERO PUSH3 0x663 JUMPI PUSH3 0x662 PUSH3 0x51C JUMP JUMPDEST JUMPDEST PUSH3 0x698 JUMP JUMPDEST PUSH3 0x678 DUP5 DUP5 DUP5 PUSH1 0x1 PUSH3 0x558 JUMP JUMPDEST SWAP3 POP SWAP1 POP DUP2 DUP5 DIV DUP2 GT ISZERO PUSH3 0x692 JUMPI PUSH3 0x691 PUSH3 0x51C JUMP JUMPDEST JUMPDEST DUP2 DUP2 MUL SWAP1 POP JUMPDEST SWAP4 SWAP3 POP POP POP JUMP JUMPDEST PUSH1 0x0 PUSH3 0x6AC DUP3 PUSH3 0x2E1 JUMP JUMPDEST SWAP2 POP PUSH3 0x6B9 DUP4 PUSH3 0x2E1 JUMP JUMPDEST SWAP3 POP PUSH3 0x6E8 PUSH32 0xFFFFFFFFFFFFFFFFFFFFFFFFFFFFFFFFFFFFFFFFFFFFFFFFFFFFFFFFFFFFFFFF DUP5 DUP5 PUSH3 0x5B3 JUMP JUMPDEST SWAP1 POP SWAP3 SWAP2 POP POP JUMP JUMPDEST PUSH1 0x0 PUSH3 0x6FD DUP3 PUSH3 0x2E1 JUMP JUMPDEST SWAP2 POP PUSH3 0x70A DUP4 PUSH3 0x2E1 JUMP JUMPDEST SWAP3 POP DUP3 DUP3 MUL PUSH3 0x71A DUP2 PUSH3 0x2E1 JUMP JUMPDEST SWAP2 POP DUP3 DUP3 DIV DUP5 EQ DUP4 ISZERO OR PUSH3 0x734 JUMPI PUSH3 0x733 PUSH3 0x51C JUMP JUMPDEST JUMPDEST POP SWAP3 SWAP2 POP POP JUMP JUMPDEST PUSH1 0x0 PUSH3 0x748 DUP3 PUSH3 0x2E1 JUMP JUMPDEST SWAP2 POP PUSH3 0x755 DUP4 PUSH3 0x2E1 JUMP JUMPDEST SWAP3 POP DUP3 DUP3 ADD SWAP1 POP DUP1 DUP3 GT ISZERO PUSH3 0x770 JUMPI PUSH3 0x76F PUSH3 0x51C JUMP JUMPDEST JUMPDEST SWAP3 SWAP2 POP POP JUMP JUMPDEST PUSH2 0xC39 DUP1 PUSH3 0x786 PUSH1 0x0 CODECOPY PUSH1 0x0 RETURN INVALID PUSH1 0x80 PUSH1 0x40 MSTORE CALLVALUE DUP1 ISZERO PUSH2 0x10 JUMPI PUSH1 0x0 DUP1 REVERT JUMPDEST POP PUSH1 0x4 CALLDATASIZE LT PUSH2 0xF5 JUMPI PUSH1 0x0 CALLDATALOAD PUSH1 0xE0 SHR DUP1 PUSH4 0x70A08231 GT PUSH2 0x97 JUMPI DUP1 PUSH4 0x8DA5CB5B GT PUSH2 0x66 JUMPI DUP1 PUSH4 0x8DA5CB5B EQ PUSH2 0x22A JUMPI DUP1 PUSH4 0x95D89B41 EQ PUSH2 0x248 JUMPI DUP1 PUSH4 0xDE242FF4 EQ PUSH2 0x266 JUMPI DUP1 PUSH4 0xF0141D84 EQ PUSH2 0x270 JUMPI PUSH2 0xF5 JUMP JUMPDEST DUP1 PUSH4 0x70A08231 EQ PUSH2 0x1C8 JUMPI DUP1 PUSH4 0x811C34D3 EQ PUSH2 0x1F8 JUMPI DUP1 PUSH4 0x862B092B EQ PUSH2 0x202 JUMPI DUP1 PUSH4 0x8A4068DD EQ PUSH2 0x220 JUMPI PUSH2 0xF5 JUMP JUMPDEST DUP1 PUSH4 0x18160DDD GT PUSH2 0xD3 JUMPI DUP1 PUSH4 0x18160DDD EQ PUSH2 0x140 JUMPI DUP1 PUSH4 0x313CE567 EQ PUSH2 0x15E JUMPI DUP1 PUSH4 0x40C10F19 EQ PUSH2 0x17C JUMPI DUP1 PUSH4 0x6EBCF607 EQ PUSH2 0x198 JUMPI PUSH2 0xF5 JUMP JUMPDEST DUP1 PUSH4 0x6FDDE03 EQ PUSH2 0xFA JUMPI DUP1 PUSH4 0x12424E3F EQ PUSH2 0x118 JUMPI DUP1 PUSH4 0x15070401 EQ PUSH2 0x122 JUMPI JUMPDEST PUSH1 0x0 DUP1 REVERT JUMPDEST PUSH2 0x102 PUSH2 0x28E JUMP JUMPDEST PUSH1 0x40 MLOAD PUSH2 0x10F SWAP2 SWAP1 PUSH2 0x761 JUMP JUMPDEST PUSH1 0x40 MLOAD DUP1 SWAP2 SUB SWAP1 RETURN JUMPDEST PUSH2 0x120 PUSH2 0x31C JUMP JUMPDEST STOP JUMPDEST PUSH2 0x12A PUSH2 0x31E JUMP JUMPDEST PUSH1 0x40 MLOAD PUSH2 0x137 SWAP2 SWAP1 PUSH2 0x761 JUMP JUMPDEST PUSH1 0x40 MLOAD DUP1 SWAP2 SUB SWAP1 RETURN JUMPDEST PUSH2 0x148 PUSH2 0x3B0 JUMP JUMPDEST PUSH1 0x40 MLOAD PUSH2 0x155 SWAP2 SWAP1 PUSH2 0x79C JUMP JUMPDEST PUSH1 0x40 MLOAD DUP1 SWAP2 SUB SWAP1 RETURN JUMPDEST PUSH2 0x166 PUSH2 0x3BA JUMP JUMPDEST PUSH1 0x40 MLOAD PUSH2 0x173 SWAP2 SWAP1 PUSH2 0x7D3 JUMP JUMPDEST PUSH1 0x40 MLOAD DUP1 SWAP2 SUB SWAP1 RETURN JUMPDEST PUSH2 0x196 PUSH1 0x4 DUP1 CALLDATASIZE SUB DUP2 ADD SWAP1 PUSH2 0x191 SWAP2 SWAP1 PUSH2 0x87D JUMP JUMPDEST PUSH2 0x3CD JUMP JUMPDEST STOP JUMPDEST PUSH2 0x1B2 PUSH1 0x4 DUP1 CALLDATASIZE SUB DUP2 ADD SWAP1 PUSH2 0x1AD SWAP2 SWAP1 PUSH2 0x8BD JUMP JUMPDEST PUSH2 0x49A JUMP JUMPDEST PUSH1 0x40 MLOAD PUSH2 0x1BF SWAP2 SWAP1 PUSH2 0x79C JUMP JUMPDEST PUSH1 0x40 MLOAD DUP1 SWAP2 SUB SWAP1 RETURN JUMPDEST PUSH2 0x1E2 PUSH1 0x4 DUP1 CALLDATASIZE SUB DUP2 ADD SWAP1 PUSH2 0x1DD SWAP2 SWAP1 PUSH2 0x8BD JUMP JUMPDEST PUSH2 0x4B2 JUMP JUMPDEST PUSH1 0x40 MLOAD PUSH2 0x1EF SWAP2 SWAP1 PUSH2 0x79C JUMP JUMPDEST PUSH1 0x40 MLOAD DUP1 SWAP2 SUB SWAP1 RETURN JUMPDEST PUSH2 0x200 PUSH2 0x4FB JUMP JUMPDEST STOP JUMPDEST PUSH2 0x20A PUSH2 0x4FD JUMP JUMPDEST PUSH1 0x40 MLOAD PUSH2 0x217 SWAP2 SWAP1 PUSH2 0x761 JUMP JUMPDEST PUSH1 0x40 MLOAD DUP1 SWAP2 SUB SWAP1 RETURN JUMPDEST PUSH2 0x228 PUSH2 0x58F JUMP JUMPDEST STOP JUMPDEST PUSH2 0x232 PUSH2 0x591 JUMP JUMPDEST PUSH1 0x40 MLOAD PUSH2 0x23F SWAP2 SWAP1 PUSH2 0x8F9 JUMP JUMPDEST PUSH1 0x40 MLOAD DUP1 SWAP2 SUB SWAP1 RETURN JUMPDEST PUSH2 0x250 PUSH2 0x5B7 JUMP JUMPDEST PUSH1 0x40 MLOAD PUSH2 0x25D SWAP2 SWAP1 PUSH2 0x761 JUMP JUMPDEST PUSH1 0x40 MLOAD DUP1 SWAP2 SUB SWAP1 RETURN JUMPDEST PUSH2 0x26E PUSH2 0x645 JUMP JUMPDEST STOP JUMPDEST PUSH2 0x278 PUSH2 0x647 JUMP JUMPDEST PUSH1 0x40 MLOAD PUSH2 0x285 SWAP2 SWAP1 PUSH2 0x7D3 JUMP JUMPDEST PUSH1 0x40 MLOAD DUP1 SWAP2 SUB SWAP1 RETURN JUMPDEST PUSH1 0x0 DUP1 SLOAD PUSH2 0x29B SWAP1 PUSH2 0x943 JUMP JUMPDEST DUP1 PUSH1 0x1F ADD PUSH1 0x20 DUP1 SWAP2 DIV MUL PUSH1 0x20 ADD PUSH1 0x40 MLOAD SWAP1 DUP2 ADD PUSH1 0x40 MSTORE DUP1 SWAP3 SWAP2 SWAP1 DUP2 DUP2 MSTORE PUSH1 0x20 ADD DUP3 DUP1 SLOAD PUSH2 0x2C7 SWAP1 PUSH2 0x943 JUMP JUMPDEST DUP1 ISZERO PUSH2 0x314 JUMPI DUP1 PUSH1 0x1F LT PUSH2 0x2E9 JUMPI PUSH2 0x100 DUP1 DUP4 SLOAD DIV MUL DUP4 MSTORE SWAP2 PUSH1 0x20 ADD SWAP2 PUSH2 0x314 JUMP JUMPDEST DUP3 ADD SWAP2 SWAP1 PUSH1 0x0 MSTORE PUSH1 0x20 PUSH1 0x0 KECCAK256 SWAP1 JUMPDEST DUP2 SLOAD DUP2 MSTORE SWAP1 PUSH1 0x1 ADD SWAP1 PUSH1 0x20 ADD DUP1 DUP4 GT PUSH2 0x2F7 JUMPI DUP3 SWAP1 SUB PUSH1 0x1F AND DUP3 ADD SWAP2 JUMPDEST POP POP POP POP POP DUP2 JUMP JUMPDEST JUMP JUMPDEST PUSH1 0x60 PUSH1 0x1 DUP1 SLOAD PUSH2 0x32D SWAP1 PUSH2 0x943 JUMP JUMPDEST DUP1 PUSH1 0x1F ADD PUSH1 0x20 DUP1 SWAP2 DIV MUL PUSH1 0x20 ADD PUSH1 0x40 MLOAD SWAP1 DUP2 ADD PUSH1 0x40 MSTORE DUP1 SWAP3 SWAP2 SWAP1 DUP2 DUP2 MSTORE PUSH1 0x20 ADD DUP3 DUP1 SLOAD PUSH2 0x359 SWAP1 PUSH2 0x943 JUMP JUMPDEST DUP1 ISZERO PUSH2 0x3A6 JUMPI DUP1 PUSH1 0x1F LT PUSH2 0x37B JUMPI PUSH2 0x100 DUP1 DUP4 SLOAD DIV MUL DUP4 MSTORE SWAP2 PUSH1 0x20 ADD SWAP2 PUSH2 0x3A6 JUMP JUMPDEST DUP3 ADD SWAP2 SWAP1 PUSH1 0x0 MSTORE PUSH1 0x20 PUSH1 0x0 KECCAK256 SWAP1 JUMPDEST DUP2 SLOAD DUP2 MSTORE SWAP1 PUSH1 0x1 ADD SWAP1 PUSH1 0x20 ADD DUP1 DUP4 GT PUSH2 0x389 JUMPI DUP3 SWAP1 SUB PUSH1 0x1F AND DUP3 ADD SWAP2 JUMPDEST POP POP POP POP POP SWAP1 POP SWAP1 JUMP JUMPDEST PUSH1 0x0 PUSH1 0x3 SLOAD SWAP1 POP SWAP1 JUMP JUMPDEST PUSH1 0x2 PUSH1 0x0 SWAP1 SLOAD SWAP1 PUSH2 0x100 EXP SWAP1 DIV PUSH1 0xFF AND DUP2 JUMP JUMPDEST PUSH1 0x4 PUSH1 0x0 SWAP1 SLOAD SWAP1 PUSH2 0x100 EXP SWAP1 DIV PUSH20 0xFFFFFFFFFFFFFFFFFFFFFFFFFFFFFFFFFFFFFFFF AND PUSH20 0xFFFFFFFFFFFFFFFFFFFFFFFFFFFFFFFFFFFFFFFF AND CALLER PUSH20 0xFFFFFFFFFFFFFFFFFFFFFFFFFFFFFFFFFFFFFFFF AND EQ PUSH2 0x45D JUMPI PUSH1 0x40 MLOAD PUSH32 0x8C379A000000000000000000000000000000000000000000000000000000000 DUP2 MSTORE PUSH1 0x4 ADD PUSH2 0x454 SWAP1 PUSH2 0x9C0 JUMP JUMPDEST PUSH1 0x40 MLOAD DUP1 SWAP2 SUB SWAP1 REVERT JUMPDEST PUSH1 0x0 PUSH1 0x2 PUSH1 0x0 SWAP1 SLOAD SWAP1 PUSH2 0x100 EXP SWAP1 DIV PUSH1 0xFF AND PUSH1 0xFF AND PUSH1 0xA PUSH2 0x47E SWAP2 SWAP1 PUSH2 0xB42 JUMP JUMPDEST DUP3 PUSH2 0x489 SWAP2 SWAP1 PUSH2 0xB8D JUMP JUMPDEST SWAP1 POP PUSH2 0x495 DUP4 DUP3 PUSH2 0x65E JUMP JUMPDEST POP POP POP JUMP JUMPDEST PUSH1 0x5 PUSH1 0x20 MSTORE DUP1 PUSH1 0x0 MSTORE PUSH1 0x40 PUSH1 0x0 KECCAK256 PUSH1 0x0 SWAP2 POP SWAP1 POP SLOAD DUP2 JUMP JUMPDEST PUSH1 0x0 PUSH1 0x5 PUSH1 0x0 DUP4 PUSH20 0xFFFFFFFFFFFFFFFFFFFFFFFFFFFFFFFFFFFFFFFF AND PUSH20 0xFFFFFFFFFFFFFFFFFFFFFFFFFFFFFFFFFFFFFFFF AND DUP2 MSTORE PUSH1 0x20 ADD SWAP1 DUP2 MSTORE PUSH1 0x20 ADD PUSH1 0x0 KECCAK256 SLOAD SWAP1 POP SWAP2 SWAP1 POP JUMP JUMPDEST JUMP JUMPDEST PUSH1 0x60 PUSH1 0x0 DUP1 SLOAD PUSH2 0x50C SWAP1 PUSH2 0x943 JUMP JUMPDEST DUP1 PUSH1 0x1F ADD PUSH1 0x20 DUP1 SWAP2 DIV MUL PUSH1 0x20 ADD PUSH1 0x40 MLOAD SWAP1 DUP2 ADD PUSH1 0x40 MSTORE DUP1 SWAP3 SWAP2 SWAP1 DUP2 DUP2 MSTORE PUSH1 0x20 ADD DUP3 DUP1 SLOAD PUSH2 0x538 SWAP1 PUSH2 0x943 JUMP JUMPDEST DUP1 ISZERO PUSH2 0x585 JUMPI DUP1 PUSH1 0x1F LT PUSH2 0x55A JUMPI PUSH2 0x100 DUP1 DUP4 SLOAD DIV MUL DUP4 MSTORE SWAP2 PUSH1 0x20 ADD SWAP2 PUSH2 0x585 JUMP JUMPDEST DUP3 ADD SWAP2 SWAP1 PUSH1 0x0 MSTORE PUSH1 0x20 PUSH1 0x0 KECCAK256 SWAP1 JUMPDEST DUP2 SLOAD DUP2 MSTORE SWAP1 PUSH1 0x1 ADD SWAP1 PUSH1 0x20 ADD DUP1 DUP4 GT PUSH2 0x568 JUMPI DUP3 SWAP1 SUB PUSH1 0x1F AND DUP3 ADD SWAP2 JUMPDEST POP POP POP POP POP SWAP1 POP SWAP1 JUMP JUMPDEST JUMP JUMPDEST PUSH1 0x4 PUSH1 0x0 SWAP1 SLOAD SWAP1 PUSH2 0x100 EXP SWAP1 DIV PUSH20 0xFFFFFFFFFFFFFFFFFFFFFFFFFFFFFFFFFFFFFFFF AND DUP2 JUMP JUMPDEST PUSH1 0x1 DUP1 SLOAD PUSH2 0x5C4 SWAP1 PUSH2 0x943 JUMP JUMPDEST DUP1 PUSH1 0x1F ADD PUSH1 0x20 DUP1 SWAP2 DIV MUL PUSH1 0x20 ADD PUSH1 0x40 MLOAD SWAP1 DUP2 ADD PUSH1 0x40 MSTORE DUP1 SWAP3 SWAP2 SWAP1 DUP2 DUP2 MSTORE PUSH1 0x20 ADD DUP3 DUP1 SLOAD PUSH2 0x5F0 SWAP1 PUSH2 0x943 JUMP JUMPDEST DUP1 ISZERO PUSH2 0x63D JUMPI DUP1 PUSH1 0x1F LT PUSH2 0x612 JUMPI PUSH2 0x100 DUP1 DUP4 SLOAD DIV MUL DUP4 MSTORE SWAP2 PUSH1 0x20 ADD SWAP2 PUSH2 0x63D JUMP JUMPDEST DUP3 ADD SWAP2 SWAP1 PUSH1 0x0 MSTORE PUSH1 0x20 PUSH1 0x0 KECCAK256 SWAP1 JUMPDEST DUP2 SLOAD DUP2 MSTORE SWAP1 PUSH1 0x1 ADD SWAP1 PUSH1 0x20 ADD DUP1 DUP4 GT PUSH2 0x620 JUMPI DUP3 SWAP1 SUB PUSH1 0x1F AND DUP3 ADD SWAP2 JUMPDEST POP POP POP POP POP DUP2 JUMP JUMPDEST JUMP JUMPDEST PUSH1 0x0 PUSH1 0x2 PUSH1 0x0 SWAP1 SLOAD SWAP1 PUSH2 0x100 EXP SWAP1 DIV PUSH1 0xFF AND SWAP1 POP SWAP1 JUMP JUMPDEST DUP1 PUSH1 0x5 PUSH1 0x0 DUP5 PUSH20 0xFFFFFFFFFFFFFFFFFFFFFFFFFFFFFFFFFFFFFFFF AND PUSH20 0xFFFFFFFFFFFFFFFFFFFFFFFFFFFFFFFFFFFFFFFF AND DUP2 MSTORE PUSH1 0x20 ADD SWAP1 DUP2 MSTORE PUSH1 0x20 ADD PUSH1 0x0 KECCAK256 PUSH1 0x0 DUP3 DUP3 SLOAD PUSH2 0x6AD SWAP2 SWAP1 PUSH2 0xBCF JUMP JUMPDEST SWAP3 POP POP DUP2 SWAP1 SSTORE POP DUP1 PUSH1 0x3 PUSH1 0x0 DUP3 DUP3 SLOAD PUSH2 0x6C6 SWAP2 SWAP1 PUSH2 0xBCF JUMP JUMPDEST SWAP3 POP POP DUP2 SWAP1 SSTORE POP POP POP JUMP JUMPDEST PUSH1 0x0 DUP2 MLOAD SWAP1 POP SWAP2 SWAP1 POP JUMP JUMPDEST PUSH1 0x0 DUP3 DUP3 MSTORE PUSH1 0x20 DUP3 ADD SWAP1 POP SWAP3 SWAP2 POP POP JUMP JUMPDEST PUSH1 0x0 JUMPDEST DUP4 DUP2 LT ISZERO PUSH2 0x70B JUMPI DUP1 DUP3 ADD MLOAD DUP2 DUP5 ADD MSTORE PUSH1 0x20 DUP2 ADD SWAP1 POP PUSH2 0x6F0 JUMP JUMPDEST PUSH1 0x0 DUP5 DUP5 ADD MSTORE POP POP POP POP JUMP JUMPDEST PUSH1 0x0 PUSH1 0x1F NOT PUSH1 0x1F DUP4 ADD AND SWAP1 POP SWAP2 SWAP1 POP JUMP JUMPDEST PUSH1 0x0 PUSH2 0x733 DUP3 PUSH2 0x6D1 JUMP JUMPDEST PUSH2 0x73D DUP2 DUP6 PUSH2 0x6DC JUMP JUMPDEST SWAP4 POP PUSH2 0x74D DUP2 DUP6 PUSH1 0x20 DUP7 ADD PUSH2 0x6ED JUMP JUMPDEST PUSH2 0x756 DUP2 PUSH2 0x717 JUMP JUMPDEST DUP5 ADD SWAP2 POP POP SWAP3 SWAP2 POP POP JUMP JUMPDEST PUSH1 0x0 PUSH1 0x20 DUP3 ADD SWAP1 POP DUP2 DUP2 SUB PUSH1 0x0 DUP4 ADD MSTORE PUSH2 0x77B DUP2 DUP5 PUSH2 0x728 JUMP JUMPDEST SWAP1 POP SWAP3 SWAP2 POP POP JUMP JUMPDEST PUSH1 0x0 DUP2 SWAP1 POP SWAP2 SWAP1 POP JUMP JUMPDEST PUSH2 0x796 DUP2 PUSH2 0x783 JUMP JUMPDEST DUP3 MSTORE POP POP JUMP JUMPDEST PUSH1 0x0 PUSH1 0x20 DUP3 ADD SWAP1 POP PUSH2 0x7B1 PUSH1 0x0 DUP4 ADD DUP5 PUSH2 0x78D JUMP JUMPDEST SWAP3 SWAP2 POP POP JUMP JUMPDEST PUSH1 0x0 PUSH1 0xFF DUP3 AND SWAP1 POP SWAP2 SWAP1 POP JUMP JUMPDEST PUSH2 0x7CD DUP2 PUSH2 0x7B7 JUMP JUMPDEST DUP3 MSTORE POP POP JUMP JUMPDEST PUSH1 0x0 PUSH1 0x20 DUP3 ADD SWAP1 POP PUSH2 0x7E8 PUSH1 0x0 DUP4 ADD DUP5 PUSH2 0x7C4 JUMP JUMPDEST SWAP3 SWAP2 POP POP JUMP JUMPDEST PUSH1 0x0 DUP1 REVERT JUMPDEST PUSH1 0x0 PUSH20 0xFFFFFFFFFFFFFFFFFFFFFFFFFFFFFFFFFFFFFFFF DUP3 AND SWAP1 POP SWAP2 SWAP1 POP JUMP JUMPDEST PUSH1 0x0 PUSH2 0x81E DUP3 PUSH2 0x7F3 JUMP JUMPDEST SWAP1 POP SWAP2 SWAP1 POP JUMP JUMPDEST PUSH2 0x82E DUP2 PUSH2 0x813 JUMP JUMPDEST DUP2 EQ PUSH2 0x839 JUMPI PUSH1 0x0 DUP1 REVERT JUMPDEST POP JUMP JUMPDEST PUSH1 0x0 DUP2 CALLDATALOAD SWAP1 POP PUSH2 0x84B DUP2 PUSH2 0x825 JUMP JUMPDEST SWAP3 SWAP2 POP POP JUMP JUMPDEST PUSH2 0x85A DUP2 PUSH2 0x783 JUMP JUMPDEST DUP2 EQ PUSH2 0x865 JUMPI PUSH1 0x0 DUP1 REVERT JUMPDEST POP JUMP JUMPDEST PUSH1 0x0 DUP2 CALLDATALOAD SWAP1 POP PUSH2 0x877 DUP2 PUSH2 0x851 JUMP JUMPDEST SWAP3 SWAP2 POP POP JUMP JUMPDEST PUSH1 0x0 DUP1 PUSH1 0x40 DUP4 DUP6 SUB SLT ISZERO PUSH2 0x894 JUMPI PUSH2 0x893 PUSH2 0x7EE JUMP JUMPDEST JUMPDEST PUSH1 0x0 PUSH2 0x8A2 DUP6 DUP3 DUP7 ADD PUSH2 0x83C JUMP JUMPDEST SWAP3 POP POP PUSH1 0x20 PUSH2 0x8B3 DUP6 DUP3 DUP7 ADD PUSH2 0x868 JUMP JUMPDEST SWAP2 POP POP SWAP3 POP SWAP3 SWAP1 POP JUMP JUMPDEST PUSH1 0x0 PUSH1 0x20 DUP3 DUP5 SUB SLT ISZERO PUSH2 0x8D3 JUMPI PUSH2 0x8D2 PUSH2 0x7EE JUMP JUMPDEST JUMPDEST PUSH1 0x0 PUSH2 0x8E1 DUP5 DUP3 DUP6 ADD PUSH2 0x83C JUMP JUMPDEST SWAP2 POP POP SWAP3 SWAP2 POP POP JUMP JUMPDEST PUSH2 0x8F3 DUP2 PUSH2 0x813 JUMP JUMPDEST DUP3 MSTORE POP POP JUMP JUMPDEST PUSH1 0x0 PUSH1 0x20 DUP3 ADD SWAP1 POP PUSH2 0x90E PUSH1 0x0 DUP4 ADD DUP5 PUSH2 0x8EA JUMP JUMPDEST SWAP3 SWAP2 POP POP JUMP JUMPDEST PUSH32 0x4E487B7100000000000000000000000000000000000000000000000000000000 PUSH1 0x0 MSTORE PUSH1 0x22 PUSH1 0x4 MSTORE PUSH1 0x24 PUSH1 0x0 REVERT JUMPDEST PUSH1 0x0 PUSH1 0x2 DUP3 DIV SWAP1 POP PUSH1 0x1 DUP3 AND DUP1 PUSH2 0x95B JUMPI PUSH1 0x7F DUP3 AND SWAP2 POP JUMPDEST PUSH1 0x20 DUP3 LT DUP2 SUB PUSH2 0x96E JUMPI PUSH2 0x96D PUSH2 0x914 JUMP JUMPDEST JUMPDEST POP SWAP2 SWAP1 POP JUMP JUMPDEST PUSH32 0x4E6F7420616C6C6F776564210000000000000000000000000000000000000000 PUSH1 0x0 DUP3 ADD MSTORE POP JUMP JUMPDEST PUSH1 0x0 PUSH2 0x9AA PUSH1 0xC DUP4 PUSH2 0x6DC JUMP JUMPDEST SWAP2 POP PUSH2 0x9B5 DUP3 PUSH2 0x974 JUMP JUMPDEST PUSH1 0x20 DUP3 ADD SWAP1 POP SWAP2 SWAP1 POP JUMP JUMPDEST PUSH1 0x0 PUSH1 0x20 DUP3 ADD SWAP1 POP DUP2 DUP2 SUB PUSH1 0x0 DUP4 ADD MSTORE PUSH2 0x9D9 DUP2 PUSH2 0x99D JUMP JUMPDEST SWAP1 POP SWAP2 SWAP1 POP JUMP JUMPDEST PUSH32 0x4E487B7100000000000000000000000000000000000000000000000000000000 PUSH1 0x0 MSTORE PUSH1 0x11 PUSH1 0x4 MSTORE PUSH1 0x24 PUSH1 0x0 REVERT JUMPDEST PUSH1 0x0 DUP2 PUSH1 0x1 SHR SWAP1 POP SWAP2 SWAP1 POP JUMP JUMPDEST PUSH1 0x0 DUP1 DUP3 SWAP2 POP DUP4 SWAP1 POP JUMPDEST PUSH1 0x1 DUP6 GT ISZERO PUSH2 0xA66 JUMPI DUP1 DUP7 DIV DUP2 GT ISZERO PUSH2 0xA42 JUMPI PUSH2 0xA41 PUSH2 0x9E0 JUMP JUMPDEST JUMPDEST PUSH1 0x1 DUP6 AND ISZERO PUSH2 0xA51 JUMPI DUP1 DUP3 MUL SWAP2 POP JUMPDEST DUP1 DUP2 MUL SWAP1 POP PUSH2 0xA5F DUP6 PUSH2 0xA0F JUMP JUMPDEST SWAP5 POP PUSH2 0xA26 JUMP JUMPDEST SWAP5 POP SWAP5 SWAP3 POP POP POP JUMP JUMPDEST PUSH1 0x0 DUP3 PUSH2 0xA7F JUMPI PUSH1 0x1 SWAP1 POP PUSH2 0xB3B JUMP JUMPDEST DUP2 PUSH2 0xA8D JUMPI PUSH1 0x0 SWAP1 POP PUSH2 0xB3B JUMP JUMPDEST DUP2 PUSH1 0x1 DUP2 EQ PUSH2 0xAA3 JUMPI PUSH1 0x2 DUP2 EQ PUSH2 0xAAD JUMPI PUSH2 0xADC JUMP JUMPDEST PUSH1 0x1 SWAP2 POP POP PUSH2 0xB3B JUMP JUMPDEST PUSH1 0xFF DUP5 GT ISZERO PUSH2 0xABF JUMPI PUSH2 0xABE PUSH2 0x9E0 JUMP JUMPDEST JUMPDEST DUP4 PUSH1 0x2 EXP SWAP2 POP DUP5 DUP3 GT ISZERO PUSH2 0xAD6 JUMPI PUSH2 0xAD5 PUSH2 0x9E0 JUMP JUMPDEST JUMPDEST POP PUSH2 0xB3B JUMP JUMPDEST POP PUSH1 0x20 DUP4 LT PUSH2 0x133 DUP4 LT AND PUSH1 0x4E DUP5 LT PUSH1 0xB DUP5 LT AND OR ISZERO PUSH2 0xB11 JUMPI DUP3 DUP3 EXP SWAP1 POP DUP4 DUP2 GT ISZERO PUSH2 0xB0C JUMPI PUSH2 0xB0B PUSH2 0x9E0 JUMP JUMPDEST JUMPDEST PUSH2 0xB3B JUMP JUMPDEST PUSH2 0xB1E DUP5 DUP5 DUP5 PUSH1 0x1 PUSH2 0xA1C JUMP JUMPDEST SWAP3 POP SWAP1 POP DUP2 DUP5 DIV DUP2 GT ISZERO PUSH2 0xB35 JUMPI PUSH2 0xB34 PUSH2 0x9E0 JUMP JUMPDEST JUMPDEST DUP2 DUP2 MUL SWAP1 POP JUMPDEST SWAP4 SWAP3 POP POP POP JUMP JUMPDEST PUSH1 0x0 PUSH2 0xB4D DUP3 PUSH2 0x783 JUMP JUMPDEST SWAP2 POP PUSH2 0xB58 DUP4 PUSH2 0x783 JUMP JUMPDEST SWAP3 POP PUSH2 0xB85 PUSH32 0xFFFFFFFFFFFFFFFFFFFFFFFFFFFFFFFFFFFFFFFFFFFFFFFFFFFFFFFFFFFFFFFF DUP5 DUP5 PUSH2 0xA6F JUMP JUMPDEST SWAP1 POP SWAP3 SWAP2 POP POP JUMP JUMPDEST PUSH1 0x0 PUSH2 0xB98 DUP3 PUSH2 0x783 JUMP JUMPDEST SWAP2 POP PUSH2 0xBA3 DUP4 PUSH2 0x783 JUMP JUMPDEST SWAP3 POP DUP3 DUP3 MUL PUSH2 0xBB1 DUP2 PUSH2 0x783 JUMP JUMPDEST SWAP2 POP DUP3 DUP3 DIV DUP5 EQ DUP4 ISZERO OR PUSH2 0xBC8 JUMPI PUSH2 0xBC7 PUSH2 0x9E0 JUMP JUMPDEST JUMPDEST POP SWAP3 SWAP2 POP POP JUMP JUMPDEST PUSH1 0x0 PUSH2 0xBDA DUP3 PUSH2 0x783 JUMP JUMPDEST SWAP2 POP PUSH2 0xBE5 DUP4 PUSH2 0x783 JUMP JUMPDEST SWAP3 POP DUP3 DUP3 ADD SWAP1 POP DUP1 DUP3 GT ISZERO PUSH2 0xBFD JUMPI PUSH2 0xBFC PUSH2 0x9E0 JUMP JUMPDEST JUMPDEST SWAP3 SWAP2 POP POP JUMP INVALID LOG2 PUSH5 0x6970667358 0x22 SLT KECCAK256 SHR 0xAA CODECOPY 0xBC BYTE DUP13 DUP2 0xD2 DUP7 0xEA 0xC4 ADDRESS 0xEA GASLIMIT SWAP10 CALLCODE 0xCF 0xCF 0x1F STOP PUSH4 0xB35FD3F8 POP CALLDATASIZE 0xBF 0xCF DUP16 0xB1 0x28 PUSH5 0x736F6C6343 STOP ADDMOD SGT STOP CALLER "
				},
				"gasEstimates": {
					"creation": {
						"codeDepositCost": "625800",
						"executionCost": "infinite",
						"totalCost": "infinite"
					},
					"external": {
						"_balances(address)": "2903",
						"allowance()": "210",
						"approve()": "190",
						"balanceOf(address)": "2864",
						"decimals()": "2516",
						"getDecimals()": "2567",
						"getSymbol()": "infinite",
						"getTokenName()": "infinite",
						"mint(address,uint256)": "infinite",
						"name()": "infinite",
						"owner()": "2536",
						"symbol()": "infinite",
						"totalSupply()": "2460",
						"transfer()": "233",
						"transferFrom()": "189"
					},
					"internal": {
						"_mint(address,uint256)": "infinite"
					}
				},
				"methodIdentifiers": {
					"_balances(address)": "6ebcf607",
					"allowance()": "de242ff4",
					"approve()": "12424e3f",
					"balanceOf(address)": "70a08231",
					"decimals()": "313ce567",
					"getDecimals()": "f0141d84",
					"getSymbol()": "15070401",
					"getTokenName()": "862b092b",
					"mint(address,uint256)": "40c10f19",
					"name()": "06fdde03",
					"owner()": "8da5cb5b",
					"symbol()": "95d89b41",
					"totalSupply()": "18160ddd",
					"transfer()": "8a4068dd",
					"transferFrom()": "811c34d3"
				}
			},
			"storageLayout": {
				"storage": [
					{
						"astId": 3,
						"contract": "vivica.sol:MyToken",
						"label": "name",
						"offset": 0,
						"slot": "0",
						"type": "t_string_storage"
					},
					{
						"astId": 5,
						"contract": "vivica.sol:MyToken",
						"label": "symbol",
						"offset": 0,
						"slot": "1",
						"type": "t_string_storage"
					},
					{
						"astId": 7,
						"contract": "vivica.sol:MyToken",
						"label": "decimals",
						"offset": 0,
						"slot": "2",
						"type": "t_uint8"
					},
					{
						"astId": 9,
						"contract": "vivica.sol:MyToken",
						"label": "_totalSupply",
						"offset": 0,
						"slot": "3",
						"type": "t_uint256"
					},
					{
						"astId": 11,
						"contract": "vivica.sol:MyToken",
						"label": "owner",
						"offset": 0,
						"slot": "4",
						"type": "t_address"
					},
					{
						"astId": 49,
						"contract": "vivica.sol:MyToken",
						"label": "_balances",
						"offset": 0,
						"slot": "5",
						"type": "t_mapping(t_address,t_uint256)"
					}
				],
				"types": {
					"t_address": {
						"encoding": "inplace",
						"label": "address",
						"numberOfBytes": "20"
					},
					"t_mapping(t_address,t_uint256)": {
						"encoding": "mapping",
						"key": "t_address",
						"label": "mapping(address => uint256)",
						"numberOfBytes": "32",
						"value": "t_uint256"
					},
					"t_string_storage": {
						"encoding": "bytes",
						"label": "string",
						"numberOfBytes": "32"
					},
					"t_uint256": {
						"encoding": "inplace",
						"label": "uint256",
						"numberOfBytes": "32"
					},
					"t_uint8": {
						"encoding": "inplace",
						"label": "uint8",
						"numberOfBytes": "1"
					}
				}
			},
			"userdoc": {
				"kind": "user",
				"methods": {},
				"version": 1
			}
		}
	}
}